               RICARDO      040000780002332022013MSECUNDARIA DE RENACIMIENTO                        MH  OCT159510CHIRIQUI    DOLEGA            LOS ALGARROBOS    JUL2616201712010403000003                999-999915/10/199526/10/201600000002 
ESCUDERO       JOHNNY       040000747000308022006MSECUNDARIA DE PTO ARMUELLES                       MG  JUL238810CHIRIQUI    BARU              RODOLFO AGUILAR   JUL2616201712010403000003                999-999923/07/198826/07/201600000007 
GONZALEZ       MODESTO      090000743000854022012MIPT AGROFORESTAL ALTO DE PIEDRA                   RQ  JUN159410VERAGUAS    SANTA FE          RIO LUIS          JUL2616201712010403000003                999-999915/06/199426/06/201600000003 
BENITES        ALEXIS       020000732000810272015MINST DE ENSENANZA SUPERIOR (CHORRERA)             OC  OCT069320COCLE       PENONOME          RIO INDIO         JUL2616201712010403000003                999-999906/10/199326/10/201600000005 
CARPINTERO     ALEXI        040000783002033282015MSITIO PRADO                                       WR  SEP299510BOCAS DEL TOCHIRIQUI GRANDE   MUNUNI            JUL2616201712010403000003                999-999929/09/199526/09/201600000001 
GUERRA         RODOLFO      010000727000887022011MCOL NIEVECITA DE LAS TABLAS (BOCAS DEL TORO)      SJ  MAY229210BOCAS DEL TOCHANGUINOLA       LAS TABLAS        JUL2616201712010403000003                999-999922/05/199226/05/201600000006 
GONZALEZ       ELVIS        080000908002018212014MIPT DE LA PALMAS                                  JZ  JUN229610PANAMA      PANAMA            SAN FELIPE        JUL2616201712010403000003                999-999922/06/199626/06/201600000004 
CRUZ           JOSE         020000741001085312016MIPT NOCTURNO DE PANAMA                            KO  FEB149810COCLE       PENONOME          PENONOME (CABEC.) JUL2616201712010403000003                997-936714/02/199826/02/201600000009 
DEL CID        LUIS         040000797002059092014MCOL OFICIAL NOCT DE DAVID                         PT  JAN169710CHIRIQUI    ALANJE            NUEVO MEXICO      JUL2616201712010403000003                999-999916/01/199726/01/201600000008 
ESPINOSA       TOMAS        040000766001953092015MESC SECUNDARIA NOCTURNA DE DOLEGA                 VM  MAR279010CHIRIQUI    DOLEGA            LOS ANASTACIOS    JUL2616201712010403000003                999-999927/03/199026/03/201600000012 
CHAVEZ         JOSE         040000798000213092015MSECUNDARIA DE PTO ARMUELLES                       MG  JUN149710CHIRIQUI    BARU              BACO              JUL2616201712010403000003                999-999914/06/199726/06/201600000010 
CASAMA         BERNARDO     110000700000549092014MNOCTURNA DE YAVIZA                                QT  MAR239510DARIEN      CEMACO            MANUEL ORTEGA     JUL2616201712010604000004                999-999923/03/199526/03/201600000011 
GONZALEZ       JEAN         080000898001430022013MINST DE MARINA MERCANTE OCUP DE PANAMA            GW  OCT199520PANAMA      ARRAIJAN          BURUNGA           JUL2616201712010403000003                999-999919/10/199526/10/201600000018 
CASTRELLON     HORACIO      040000796002254012012MIPT ABEL TAPIERO MIRANDA                          PO  MAR029210CHIRIQUI    BARU              HORCONCITOS (CABECJUL2616201712010403000003                999-999902/03/199226/03/201600000013 
COLINDRES      OSNAR        040000773002095192013MIPT DE DAVID                                      JW  OCT179410CHIRIQUI    BUGABA            ASERRIO DE GARICHEJUL2616201712010403000003                999-999917/10/199426/10/201600000014 
CAMARENA       JAVIER       080000813000647022005MINST RUFO A GARAY                                 IO  NOV268710PANAMA      LA CHORRERA       BARRIO BALBOA     JUL2616201712010403000003                999-999926/11/198726/11/201600000024 
HUERTAS        JOSHUA       040000774001456142014MCOL DANIEL OCTAVIO CRESPO                         BK  NOV039410CHIRIQUI    BARU              PROGRESO          JUL2616201712010403000003      000006  01727-675803/11/199426/11/201600000015 
JIMENEZ        ANEL         040000753002257092008MSECUNDARIA DE ASERRIO                             LZ  JUL099010CHIRIQUI    BUGABA            GOMEZ             JUL2616201712010403000003                999-999909/07/199026/07/201600000025 
BARRIA         RUBEN        090000747000523232013MIPT DE VERAGUAS                                   KE  FEB279610VERAGUAS    SANTIAGO          SANTIAGO (CABEC.) JUL2616201712010403000003                999-406327/02/199626/02/201600000023 
BEJERANO       MATEO        040000799000483012012MIPT JOAQUINA H DE TORRIJOS                        RY  MAY249310BOCAS DEL TOCHIRIQUI GRANDE   CANQUINTU         JUL2616201712010403000003                999-999924/05/199326/05/201600000019 
ACOSTA         DAGOBERTO    080000845001702022009MESC AMERICANA                                     EN  MAR249120PANAMA      PANAMA            SAN FELIPE        JUL2616201712010403000003                266-974024/03/199126/03/201600000020 
HERNANDEZ      JOSE         020000738001700222014MIPT DE LA CHORRERA                                JX  NOV149610COCLE       PENONOME          RIO INDIO         JUL2616201712010403000003                999-999914/11/199626/11/201600000029 
CARLES         RUBEN        020000738000588012014MIPT DE LA PINTADA                                 KA  NOV089610COCLE       LA PINTADA        PIEDRAS GORDAS    JUL2616201712010403000003                999-999908/11/199626/11/201600000016 
ARCIA          JOSE         080000919002491252015MIPT SAN ROQUITO (OLA)                             QH  JUN299710VERAGUAS    SANTIAGO          SANTIAGO (CABEC.) JUL2616201712010403000003                999-999929/06/199726/06/201600000022 
CASTILLO       ALEXANDER    010000740000244012014MIPT AGROFORESTAL ALTO DE PIEDRA                   RQ  OCT059610VERAGUAS    SANTA FE          CALOVEBORA        JUL2616201712010403000003                999-999905/10/199626/10/201600000030 
BONILLA        KELVIN       090000752001561012015MIPT AGROFORESTAL ALTO DE PIEDRA                   RQ  MAR039810VERAGUAS    SANTA FE          EL ALTO           JUL2616201712010403000003                999-999903/03/199826/03/201600000026 
ARCIA          CARLOS       090000746000406232014MIPT DE VERAGUAS                                   KE  JUN119510VERAGUAS    CANAZAS           SAN JOSE          JUL2616201712010403000003                999-406311/06/199526/06/201600000027 
CASTILLO       JOSE         020000736001987022014MNOCTURNA DE PENONOME                              LI  FEB109610COCLE       PENONOME          COCLE             JUL2616201712010403000003                999-999910/02/199626/02/201600000031 
ARTUNDUAGA     RODRIGO      010000737001745022014MCOL NIEVECITA DE LAS TABLAS (BOCAS DEL TORO)      SJ  JUN139610BOCAS DEL TOCHANGUINOLA       LAS TABLAS        JUL2616201712010403000003                999-999913/06/199626/06/201600000021 
ABREGO         ERNESTO      010000742002090092014MIPT JOSE DE LA CRUZ HERRERA                       WS  JAN289410CHIRIQUI    ALANJE            NUEVO MEXICO      JUL2616201712010106000006                999-999928/01/199426/01/201600000028 
ADAMES         HANDY        090000737001219212009MIPT DE LA PALMAS                                  JZ  MAR099210VERAGUAS    SANTIAGO          SANTIAGO (CABEC.) JUL2616201712010403000003                958-801709/03/199226/03/201600000017 
SAMUDIO        JEFFRI       040000794002382022015MINST CHIRIQUI (DAVID)                             FZ  MAR089720CHIRIQUI    BUGABA            LA CONCEPC. (CABECJUL2616201712010403000003                999-999908/03/199726/03/201600000035 
VILLARREAL     ENDER        040000793001612022015MINST COMERCIAL DE EDUCACION A DISTANCIA (ICED)    TP  AUG119620CHIRIQUI    BUGABA            LA CONCEPC. (CABECJUL2616201712010403000003                999-999911/08/199626/08/201600000034 
Pardo          JOEL         090000736001971142015MINST CHIRIQUI EDUC ABIERTA A DISTANCIA            ABO MAR208910VERAGUAS    SANTIAGO          SANTIAGO (CABEC.) JUL2616201712010403000003                999-999920/03/198926/03/201600000037 
RODRIGUEZ      CESAR        040000771002282022013MNOCTURNA DE PTO ARMUELLES                         LJ  OCT249310CHIRIQUI    BARU              BACO              JUL2616201712010403000003                000-000024/10/199326/10/201600000036 
TROYA          ROYER        040000769000166172010MESC NORMAL JUAN D AROSEMENA                       EV  JAN149310CHIRIQUI    DAVID             PEDREGAL          JUL2616201712010403000003                999-999914/01/199326/01/201600000038 
SERRUD         JEAN         040000839002239282015MIPT CHIRIQUI ORIENTE                              JN  MAR319410CHIRIQUI    ALANJE            NUEVO MEXICO      JUL2616201712010403000003                999-999931/03/199426/03/201600000032 
PEREZ          CRISTIAN     090000751001584012015MIPT PABLO PINZON (PONUGA)                         RX  JAN319810VERAGUAS    SANTIAGO          PONUGA            JUL2616201712010604000004                999-999931/01/199826/01/201600000033 
MENDIETA       ARMANDO      070000709000486212012MIPT DE LA CHORRERA                                JX  JAN069410PANAMA      LA CHORRERA       BARRIO BALBOA     JUL2616201712010403000003                999-999906/01/199426/01/201600000041 
ROJAS          IVAN         040000763000920012011MIPT DE BARU                                       JQ  OCT049210CHIRIQUI    BARU              RODOLFO AGUILAR   JUL2616201712010403000003                999-999904/10/199226/10/201600000040 
MORALEZ        XAVIER       090000741001228092011MCOL JOSE BONIFACIO ALVARADO                       CC  MAY219210VERAGUAS    CALOBRE           EL MARANON        JUL2616201712010403000003                999-999921/05/199226/05/201600000044 
SANTOS         JAIRO        040000780001478022012MINST DAVID                                        GQ  MAR029310CHIRIQUI    BARU              PROGRESO          JUL2616201712010403000003                999-999902/03/199326/03/201600000039 
SAUCEDO        SAMUEL       040000790000218092015MSECUNDARIA DE PTO ARMUELLES                       MG  AUG029710CHIRIQUI    BARU              RODOLFO AGUILAR   JUL2616201712010403000003                999-999902/08/199726/08/201600000043 
SABUGARA       JOSE         050000710000855142013MESC SEC NOCTURNA OFICIAL DE JAQUE                 XV  NOV289310DARIEN      CHEPIGANA         JAQUE             JUL2616201712010403000003                999-999928/11/199326/11/201600000046 
ORTEGA         RAUL         090000728000103252005MINST PROF OMAR TORRIJOS H                         IK  DEC128710VERAGUAS    SANTIAGO          LOS ALGARROBOS    JUL2616201712010403000003                954-912812/12/198726/12/201600000050 
MARQUEZ        JAVIER       080000906001221022014MESC SEC EL PROGRESO                               FB  APR139510CHIRIQUI    BARU              PROGRESO          JUL2616201712010403000003                999-999913/04/199526/04/201600000045 
SERRANO        ISIDRO       060000720002100012015MINST AGROP JESUS DE NAZARENO                      JI  JUL289720HERRERA     LAS MINAS         EL TORO           JUL2616201712010403000003                999-999928/07/199726/07/201600000047 
RODRIGUEZ      CESAR        090000743001797012013MINST AGROP JESUS DE NAZARENO                      JI  OCT309320VERAGUAS    CALOBRE           SONA (CABEC.)     JUL2616201712010403000003                999-999930/10/199326/10/201600000042 
RODRIGUEZ      ANGEL        080000924000340142016MINST CHIRIQUI EDUC ABIERTA A DISTANCIA            ABO AUG189710VERAGUAS    ATALAYA           SAN ANTONIO       JUL2616201712010403000003                999-999918/08/199726/08/201600000052 
PINTO          JOSE         040000779001334022010MCOL SEC DE SAN FELIX                              XB  JUN058810CHIRIQUI    BARU              LIMONES           JUL2616201712010403000003                999-999905/06/198826/06/201600000051 
MOLINA         EDIER        120000700001664252015MCOL BASICO GENERAL DE GUABITO                     BA  FEB149810BOCAS DEL TOCHANGUINOLA       GUABITO           JUL2616201712010403000003                999-999914/02/199826/02/201600000049 
RODRIGUEZ      CENEN        090000748000358222014MIPT DE VERAGUAS                                   KE  JUL309610VERAGUAS    SAN FRANCISCO     LOS HATILLOS      JUL2616201712010403000003                999-999930/07/199626/07/201600000053 
MEPAQUITO      MAKQUIVER    110000700002066022012MAMERICAN CHRISTIAN SCHOOL                         AAH FEB149420DARIEN      CEMACO            CIRILO GUAINORA   JUL2616201712010403000003                999-999914/02/199426/02/201600000048 
SANTOS         JOSE         010000736001635022013MCOL NIEVECITA DE LAS TABLAS (BOCAS DEL TORO)      SJ  DEC159510BOCAS DEL TOCHANGUINOLA       LAS TABLAS        JUL2616201712010403000003                756-614515/12/199526/12/201600000057 
ROBLES         JORGE        090000752000174092015MCOL JOSE BONIFACIO ALVARADO                       CC  DEC169710VERAGUAS    CALOBRE           LA SOLEDAD        JUL2616201712010403000003                999-999916/12/199726/12/201600000054 
RODRIGUEZ      CARLOS       040000776001957022013MIPT CHICHICA                                      QJ  FEB229510BOCAS DEL TOCHIRIQUI GRANDE   MUNUNI            JUL2616201712010403000003                999-999922/02/199526/02/201600000055 
SANTOS         EUSEBIO      010000740000297022015MCOL NIEVECITA DE LAS TABLAS (BOCAS DEL TORO)      SJ  MAY319710BOCAS DEL TOCHANGUINOLA       LAS TABLAS        JUL2616201712010403000003                999-999931/05/199726/05/201600000058 
PALACIO        SADAN        010000731002366022013MCOL BASICO GENERAL DE GUABITO                     BA  AUG189310BOCAS DEL TOCHANGUINOLA       LAS TABLAS        JUL2616201712010403000003                999-999918/08/199326/08/201600000060 
PINEDA         MAYNOR       010000735002240022013MCOL NIEVECITA DE LAS TABLAS (BOCAS DEL TORO)      SJ  AUG189510BOCAS DEL TOCHANGUINOLA       LAS TABLAS        JUL2616201712010403000003                999-999918/08/199526/08/201600000059 
ROBINSON       OVIDIO       010000742000182252015MCOL BASICO GENERAL DE GUABITO                     BA  FEB199610BOCAS DEL TOCHANGUINOLA       GUABITO           JUL2616201712010403000003                999-999919/02/199626/02/201600000061 
LOPEZ          ELOY         040000840002166012011MIPT DE BARU                                       JQ  FEB219110VERAGUAS    SANTIAGO          LA COLORADA       JUL2616201712010403000003                999-999921/02/199126/02/201600000056 
BONICHE        MELQUISIDED  090000745002286222013MIPT DE LA PALMAS                                  JZ  JUL029510VERAGUAS    LAS PALMAS        EL RINCON         JUL2716201712010403000003                999-999902/07/199527/07/201600000065 
CABALLERO      YORMAN       040000773002194092014MINST COMERCIAL DE EDUCACION A DISTANCIA (ICED)    TP  SEP099420CHIRIQUI    DAVID             SAN CARLOS        JUL2716201712010403000003                999-999909/09/199427/09/201600000062 
CARREÑO       JESUS        040000787000893092014MSECUNDARIA DE PTO ARMUELLES                       MG  DEC259610CHIRIQUI    BARU              PTO. ARMUEL (CABECJUL2716201712010403000003                999-999925/12/199627/12/201600000063 
CASTILLO       CARLOS       040000792000679232015MIPT DE BARU                                       JQ  OCT209710CHIRIQUI    BARU              RODOLFO AGUILAR   JUL2716201712010403000003                999-999920/10/199727/10/201600000068 
FUENTES        FERMIN       080000846001687022007MCOL JOSE ANTONIO REMON CANTERA                    CB  APR259010PANAMA      PANAMA            EL CHORRILLO      JUL2716201712010403000003                999-999925/04/199027/04/201600000064 
ATENCIO        LUIS         040000786002360092015MSECUNDARIA DE ASERRIO                             LZ  DEC109610CHIRIQUI    BUGABA            LA ESTRELLA       JUL2716201712010403000003                999-999910/12/199627/12/201600000066 
ARAÚZ         JUAN         040000792001294022015MSECUNDARIA DE PTO ARMUELLES                       MG  JAN029810CHIRIQUI    BARU              PTO. ARMUEL (CABECJUL2716201712010403000003                999-999902/01/199827/01/201600000069 
CACERES        JAILER       050000712001152222015MIPT NOCTURNO DE PANAMA                            KO  APR259610PANAMA      SAN MIGUELITO     ARNULFO ARIAS     JUL2716201712010403000003                999-999925/04/199627/04/201600000067 
BARRIA         EDGARDO      040000796001478022014MINST CHIRIQUI (DAVID)                             FZ  OCT239520CHIRIQUI    GUALACA           HORNITO           JUL2716201712010403000003                999-999923/10/199527/10/201600000070 
ESPINOZA       JUSTIN       040000780000599252014MIPT ARNULFO ARIAS                                 QE  JAN149610CHIRIQUI    DAVID             DAVID (CABEC.)    JUL2716201712010403000003                774-309514/01/199627/01/201600000075 
JIMENEZ        JOSE         040000791000430092015MSECUNDARIA DE PTO ARMUELLES                       MG  SEP219710CHIRIQUI    BARU              PTO. ARMUEL (CABECJUL2716201712010403000003                999-999921/09/199727/09/201600000073 
BEJERANO       LAZARO       010000742001518022015MESC SEC NOCTURNA DE RENACIMIENTO                  XM  AUG119610CHIRIQUI    RENACIMIENTO      RIO SERENO (CABEC.JUL2716201712010403000003                999-999911/08/199627/08/201600000077 
CABALLERO      RUBIEL       040000785000938022014MCOL DANIEL OCTAVIO CRESPO                         BK  SEP179510CHIRIQUI    BUGABA            CERRO PUNTA       JUL2716201712010403000003                999-999917/09/199527/09/201600000076 
BELTRAN        MARIANO      050000712001839022015MINST BILINGUE SAN JUDAS TADEO                     VS  DEC209620COCLE       NATA              TOZA              JUL2716201712010403000003                999-999920/12/199627/12/201600000071 
CHACON         ORIEL        080000841001066092015MCENTRO EDUCATIVO NOC DE TORTI                     QC  JUL279010PANAMA      CHEPO             TORTI             JUL2716201712010403000003                999-999927/07/199027/07/201600000074 
AGUILAR        ORLANDO      090000730000421022015MINST COMP Y LABORAL DE VERAGUAS                   GM  JAN308920VERAGUAS    SANTIAGO          SANTIAGO (CABEC.) JUL2716201712010403000003                999-999930/01/198927/01/201600000072 
BEKER          SERGIO       010000723002026142008MCOL BASICO GENERAL DE GUABITO                     BA  SEP269010PANAMA      PANAMA            EL CHORRILLO      JUL2716201712010403000003                999-999926/09/199027/09/201600000078 
CAICEDO        ALEXANDER    080000845001279022008MESC SEC PEDRO PABLO SANCHEZ                       FD  MAR259110PANAMA      LA CHORRERA       GUADALUPE         JUL2716201712010106000006                244-640425/03/199127/03/201600000091 
BLANQUICET     YELTSINW     090000743000243022015MINST COMP Y LABORAL DE VERAGUAS                   GM  SEP179320VERAGUAS    SANTIAGO          CANTO DEL LLANO   JUL2716201712010403000003                999-999917/09/199327/09/201600000079 
CASTILLO       OLIVER       040000782002238142015MCOL DANIEL OCTAVIO CRESPO                         BK  JUL019610CHIRIQUI    BUGABA            LA CONCEPC. (CABECJUL2716201712010403000003                999-999901/07/199627/07/201600000080 
ASPEDILLA      ADALBERTO    080000902000747022013MINST RUBIANO                                      IN  FEB079610PANAMA      SAN MIGUELITO     OMAR TORRIJOS     JUL2716201712010106000006                231-044607/02/199627/02/201600000093 
ESPINOSA       CLEMENTE     040000802001160232015MIPT DE BARU                                       JQ  OCT099610CHIRIQUI    BARU              PTO. ARMUEL (CABECJUL2716201712010403000003                999-999909/10/199627/10/201600000087 
CERRUD         CARLOS       040000787000670302013MIPT NOCTURNO DE DAVID                             KN  MAR169710CHIRIQUI    DAVID             PEDREGAL          JUL2716201712010403000003                999-999916/03/199727/03/201600000083 
HERNANDEZ      JOSE         040000786000604022015MCOL FELIX OLIVARES CONTRERAS                      BQ  DEC169610CHIRIQUI    DAVID             DAVID (CABEC.)    JUL2716201712010403000003                999-999916/12/199627/12/201600000082 
ARAÚZ         ALAN         040000791001334022015MINSTITUTO PUERTO ARMUELLES                        ABC OCT169710CHIRIQUI    BARU              BACO              JUL2716201712010403000003                999-999916/10/199727/10/201600000088 
GUERRA         RODRIGO      040000787001436022014MCOL JOSE DANIEL CRESPO                            CD  MAR159710CHIRIQUI    BARU              PROGRESO          JUL2716201712010403000003                999-999915/03/199727/03/201600000085 
CONCEPCIÓN    OLIVER       090000749002330022015MESC SECUNDARIA LA PENA                            MV  NOV309610VERAGUAS    SANTA FE          RIO LUIS          JUL2716201712010403000003                641-265930/11/199627/11/201600000086 
ATENCIO        LARRY        040000753000865092009MSECUNDARIA DE PTO ARMUELLES                       MG  FEB129010CHIRIQUI    BUGABA            GOMEZ             JUL2716201712010403000003                999-999912/02/199027/02/201600000081 
GARCIA         ABDIEL       040000769001562022013MCOL DANIEL OCTAVIO CRESPO                         BK  NOV029310CHIRIQUI    DAVID             CHIRIQUI          JUL2716201712010403000003                770-395802/11/199327/11/201600000084 
ESPINOZA       DANIEL       040000789002233092014MSECUNDARIA DE PTO ARMUELLES                       MG  MAR249710CHIRIQUI    BARU              BACO              JUL2716201712010403000003                999-999924/03/199727/03/201600000089 
CABALLERO      CRISTIAN     040000780000252022011MESC SEC EL PROGRESO                               FB  APR289410CHIRIQUI    BARU              BACO              JUL2716201712010403000003                999-999928/04/199427/04/201600000090 
HURTADO        JOSE         040000766001187022013MNOCTURNA DE PTO ARMUELLES                         LJ  MAR289310CHIRIQUI    BARU              PTO. ARMUEL (CABECJUL2716201712010403000003                999-999928/03/199327/03/201600000092 
MARTES         LUIGI        040000770000701092008MSECUNDARIA DE VOLCAN                              MI  SEP158910CHIRIQUI    BUGABA            LA CONCEPC. (CABECJUL2716201712010403000003                999-999915/09/198927/09/201600000094 
MORALES        NESTALI      040000816000632092014MSECUNDARIA DE PTO ARMUELLES                       MG  NOV199610CHIRIQUI    BARU              BACO              JUL2716201712010403000003                999-999919/11/199627/11/201600000095 
MARTINEZ       CARLOS       080000824001128222007MIPT LEONILA PINZON DE GRIMALDO                    KK  MAR278910COCLE       PENONOME          EL COCO           JUL2716201712010403000003                999-999927/03/198927/03/201600000096 
BALLADARES     EDWARD       090000732001827092011MCENTRO EDUCATIVO ANDRES BELLO (VERAGUAS)          UV  SEP058920VERAGUAS    SANTIAGO          CANTO DEL LLANO   JUL2716201712010403000003                958-803505/09/198927/09/201600000101 
RODRIGUEZ      SAUL         090000740002399022013MCOL SEC EL PEÑON (VERAGUAS)                      XG  MAR089310BOCAS DEL TOCHIRIQUI GRANDE   PUNTA ROBALO      JUL2716201712010403000003                999-999908/03/199327/03/201600000098 
PIMENTEL       HANSEL       040000781000881092014MSECUNDARIA DE PTO ARMUELLES                       MG  DEC199510CHIRIQUI    BARU              PTO. ARMUEL (CABECJUL2716201712010403000003                999-999919/12/199527/12/201600000099 
MARTINEZ       ADONYS       040000798002276252014FSECUNDARIA DE ASERRIO                             LZ  NOV229510CHIRIQUI    BARU              PROGRESO          JUL2716201712010403000003                999-999922/11/199527/11/201600000097 
ARCIA          LUIS         090000733000195092007MNOCTURNA DE SANTIAGO                              LK  NOV118810VERAGUAS    SANTIAGO          SANTIAGO (CABEC.) JUL2716201712010403000003                999-999911/11/198827/11/201600000106 
SAEZ           CESAR        080000912001452022015MINST COMP Y LABORAL DE LAS TABLAS                 NC  OCT209620PANAMA      PANAMA            SAN FELIPE        JUL2716201712010403000003                999-999920/10/199627/10/201600000100 
AGUILAR        JAVIER       090000748001469222014MIPT DE VERAGUAS                                   KE  NOV129610VERAGUAS    SANTIAGO          CARLOS SANTANA    JUL2716201712010403000003                999-999912/11/199627/11/201600000108 
OTERO          CARLOS       090000749001523222013MIPT DE VERAGUAS                                   KE  MAR079610VERAGUAS    SANTIAGO          SANTIAGO (CABEC.) JUL2716201712010403000003                999-999907/03/199627/03/201600000105 
MILORD         RODRIGO      020000729001770302013MCENTRO EDUCATIVO ANDRES BELLO (VERAGUAS)          UV  AUG049220COCLE       AGUADULCE         AGUADULCE (CABECERJUL2716201712010403000003                999-999904/08/199227/08/201600000103 
MONROY         RAUQUEL      070000709000929022012MINST DE MARINA MERCANTE ISTMENO                   QF  MAY209420LOS SANTOS  LAS TABLAS        LAS TABLAS (CABECEJUL2716201712010403000003                999-999920/05/199427/05/201600000107 
SALAZAR        VICTOR       050000715000366172008MESC NORMAL JUAN D AROSEMENA                       EV  OCT168710PANAMA      SAN MIGUELITO     ARNULFO ARIAS     JUL2716201712010403000003                999-999916/10/198727/10/201600000102 
MIRANDA        JONATHAN     040000765000048302013MIPT NOCTURNO DE DAVID                             KN  MAR039310CHIRIQUI    DAVID             PEDREGAL          JUL2716201712010403000003                999-999903/03/199327/03/201600000110 
PIMENTEL       ARIEL        080000945000493142014MESC LABORAL LOS PINOS                             WM  MAR209720PANAMA      PANAMA            SAN FELIPE        JUL2716201712010403000003                999-999920/03/199727/03/201600000113 
RODRIGUEZ      PRÓSPERO    080000877000520212012MIPTC FERNANDO DE LESSEPS                          KT  NOV209310PANAMA      ARRAIJAN          SANTA CLARA       JUL2716201712010403000003                999-999920/11/199327/11/201600000112 
QUINTERO       CESAR        040000755000941092008MSECUNDARIA DE ASERRIO                             LZ  NOV079010CHIRIQUI    BUGABA            LA ESTRELLA       JUL2716201712010403000003                999-999907/11/199027/11/201600000111 
OJO            ARMANDO      060000722000314092015MCOL RAFAEL QUINTERO VILLARREAL                    DH  JAN209710HERRERA     OCU               OCU (CABEC.)      JUL2716201712010403000003                999-999920/01/199727/01/201600000123 
MONTES         JOSUE        040000781001503022014MSECUNDARIA DE LAS LAJAS                           MB  APR099610CHIRIQUI    BARU              LIMONES           JUL2716201712010403000003                999-999909/04/199627/04/201600000104 
PINEDA         ROBERT       040000785002026252015MIPT DE BARU                                       JQ  NOV079610CHIRIQUI    BARU              RODOLFO AGUILAR   JUL2716201712010403000003                999-999907/11/199627/11/201600000115 
PALACIOS       NODIER       040000766000720142015MINST CHIRIQUI (DAVID)                             FZ  NOV199120CHIRIQUI    BUGABA            GOMEZ             JUL2716201712010403000003                999-999919/11/199127/11/201600000109 
MATA           JESUS        090000746001582092015MINST LABORAL Y TEC DE VERAGUAS                    HQ  DEC019510VERAGUAS    LAS PALMAS        LOLA              JUL2716201712010403000003                999-999901/12/199527/12/201600000120 
QUIEL          WALTER       040000750001180092007MESC SEC NOCTURNA DE BOQUETE                       XL  JUL168910CHIRIQUI    DOLEGA            LOS ALGARROBOS    JUL2716201712010403000003                999-999916/07/198927/07/201600000114 
MARIN          FERNANDO     090000744000580212014MIPT DE VERAGUAS                                   KE  SEP029410VERAGUAS    SANTIAGO          CARLOS SANTANA    JUL2716201712010403000003                999-999902/09/199427/09/201600000121 
RODRIGUEZ      EVARISTO     040000788001519092015MSECUNDARIA DE PTO ARMUELLES                       MG  APR229710CHIRIQUI    BARU              PTO. ARMUEL (CABECJUL2716201712010403000003                999-999922/04/199727/04/201600000118 
PEÑA          ARIEL        040000780001050252015MIPT DE BARU                                       JQ  NOV239510CHIRIQUI    BARU              PROGRESO          JUL2716201712010403000003                999-999923/11/199527/11/201600000116 
MIRANDA        LEONEL       040000801001503092014MSECUNDARIA DE PTO ARMUELLES                       MG  JUN039510CHIRIQUI    BARU              RODOLFO AGUILAR   JUL2716201712010403000003                999-999903/06/199527/06/201600000119 
RODRIGUEZ      CRISTIAN     040000783000613092015MSECUNDARIA DE PTO ARMUELLES                       MG  MAY099610CHIRIQUI    BARU              PTO. ARMUEL (CABECJUL2716201712010403000003                999-999909/05/199627/05/201600000117 
OJO            DIDIEL       090000752001346012015MIPT PABLO PINZON (PONUGA)                         RX  MAR299710VERAGUAS    CALOBRE           CALOBRE (CABEC.)  JUL2716201712010403000003                999-999929/03/199727/03/201600000122 
HERNANDEZ      RATZEL       090000739001186012010MIPT PABLO PINZON (PONUGA)                         RX  DEC119210VERAGUAS    SANTIAGO          LOS ALGARROBOS    JUL2816201712010403000003                999-999911/12/199228/12/201600000126 
ALVEO          JORGE        020000734002226092014MCOL SALOMON PONCE AGUILERA                        DQ  FEB129510COCLE       ANTON             ANTON (CABECERA)  JUL2816201712010403000003                999-999912/02/199528/02/201600000125 
CONCEPCIÓN    DANIEL       010000720000788022015MNOCTURNA DE BOCAS DEL TORO                        KZ  NOV178810BOCAS DEL TOCHANGUINOLA       CHANGUINOLA (CABECJUL2816201712010403000003                999-999917/11/198828/11/201600000130 
BARRIA         REYNALDO     060000714000246092015MCENTRO DE ESTUDIOS REGIONALES DE PMA (LOS SANTOS) NN  JAN148920HERRERA     LOS POZOS         LOS CERROS DE PAJAJUL2816201712010403000003                999-999914/01/198928/01/201600000128 
GARCIA         DIOGENE      090000750000697022015MCENTRO EDUCATIVO ANDRES BELLO (VERAGUAS)          UV  MAR309720VERAGUAS    CANAZAS           CERRO DE PLATA    JUL2816201712010403000003                999-999930/03/199728/03/201600000124 
GONZALEZ  u    ESTEBAN      090000739000980022012MESC JESUS HECTOR GALLEGO                          SG  DEC269210VERAGUAS    SANTA FE          EL CUAY           JUL2816201712010403000003                999-999926/12/199228/12/201600000129 
ABREGO         FIDENCIO     010000738001611252015MCOL BASICO GENERAL DE GUABITO                     BA  JUL049610BOCAS DEL TOCHANGUINOLA       CHANGUINOLA (CABECJUL2816201712010403000003                999-999904/07/199628/07/201600000133 
ACOSTA         CARLOS       030000737000002242015MINST RUFO A GARAY                                 IO  AUG209610COLON       COLON             CATIVA            JUL2816201712010403000003                444-113220/08/199628/08/201600000134 
PINZON         GABRIEL      020000733001226202013MIPT DE LA CHORRERA                                JX  JAN149410PANAMA      CAPIRA            CAPIRA (CABEC.)   JUL2816201712010403000003                999-999914/01/199428/01/201600000136 
ORTIZ          DOMINGO      080000852000353092008MCENTRO LABORAL NOC OFICIAL DE CHEPO               PI  MAR218910PANAMA      PANAMA            SAN FELIPE        JUL2816201712010403000003                388-981821/03/198928/03/201600000135 
VICTORIA       JUAN         020000738002354272013MIPT DE RIO HATO                                   QS  MAR089610COCLE       ANTON             EL CHIRU          JUL2816201712010403000003                000-000008/03/199628/03/201600000137 
OSORIO         LUIS         020000737000179092015MCOL ANGEL MARIA HERRERA                           AY  MAR249610COCLE       PENONOME          PENONOME (CABEC.) JUL2816201712010403000003                999-999924/03/199628/03/201600000138 
ACOSTA         SALOMON      090000744000722272012MCENTRO EDUCATIVO DE CERRO PELADO                  US  MAR219310BOCAS DEL TOCHIRIQUI GRANDE   PUNTA ROBALO      JUL2816201712010403000003                999-999921/03/199328/03/201600000132 
CONCEPCIÓN    ABELARDO     090000737000574012013MIPT AGROFORESTAL ALTO DE PIEDRA                   RQ  FEB129210VERAGUAS    SANTA FE          EL CUAY           JUL2816201712010403000003                999-999912/02/199228/02/201600000131 
VILLARREAL     FRANCISCO    060000710001836022010MNOCTURNA DE CHITRE                                LC  MAR108610LOS SANTOS  LOS SANTOS        LOS OLIVOS        JUL2816201712010403000003                999-999910/03/198628/03/201600000127 
SMITH          HERNAN       010000738001408192014MIPT DE BOCAS DEL TORO                             JR  SEP209610BOCAS DEL TOCHANGUINOLA       CHANGUINOLA (CABECJUL2816201712010403000003                999-999920/09/199628/09/201600000139 
CEDEÑO        EFRAIN       010000739001434022014MIPT DE BOCAS DEL TORO                             JR  JAN319610BOCAS DEL TOCHANGUINOLA       LAS TABLAS        JUL2816201712010604000004                000-000031/01/199628/01/201600000151 
APARICIO       ALEX         040000789001917022013MCOL FELIX OLIVARES CONTRERAS                      BQ  JUN089510CHIRIQUI    DAVID             DAVID (CABEC.)    JUL2816201712010403000003                999-999908/06/199528/06/201600000141 
FLORES         ALEXANDER    090000732001610202007MIPT DE VERAGUAS                                   KE  DEC028810VERAGUAS    ATALAYA           EL BARRITO        JUL2816201712010403000003                999-999902/12/198828/12/201600000143 
CRUZ           DOMINGO JOSE 060000719002139012015MIPT LLANOS DE OCU                                 WT  MAY109610HERRERA     OCU               EL TIJERA         JUL2816201712010403000003                999-999910/05/199628/05/201600000140 
ABREGO         ALFONSO      010000737000790092014MCENTRO DE EDUCACIÓN LABORAL DE CHIRIQUI GRANDE   XN  NOV099410BOCAS DEL TOCHIRIQUI GRANDE   CHIRIQUI G. (CABECJUL2816201712010403000003                999-999909/11/199428/11/201600000142 
MORALES        ROMAN        040000795000188022015MESC SEC EL PROGRESO                               FB  JUL239710CHIRIQUI    BARU              RODOLFO AGUILAR   JUL2816201712010403000003                999-999923/07/199728/07/201600000147 
GONZALEZ       DAVID        040000790000153232015MIPT DE BARU                                       JQ  JUL119710CHIRIQUI    BARU              PTO. ARMUEL (CABECJUL2816201712010106000006                999-999911/07/199728/07/201600000152 
GONZALEZ       MAIKEL       040000802001624022015MESC SEC EL PROGRESO                               FB  AUG199710CHIRIQUI    BARU              PROGRESO          JUL2816201712010403000003                999-999919/08/199728/08/201600000146 
OLEA           LIBERTO      050000709001100092012MCENTRO LABORAL NOCT DE METETI                     NA  MAY249210DARIEN      CEMACO            LAJAS BLANCAS     JUL2816201712010403000003                999-999924/05/199228/05/201600000148 
CHANGO         DANIEL       110000700000750022013MCENTRO LABORAL NOCT DE METETI                     NA  NOV029310DARIEN      CEMACO            LAJAS BLANCAS     JUL2816201712010403000003                999-999902/11/199328/11/201600000145 
GOMEZ          GABRIEL      030000729001084022011MINST RUFO A GARAY                                 IO  AUG109210COLON       COLON             CRISTOBAL         JUL2816201712010403000003                999-999910/08/199228/08/201600000149 
ARENAS         GUILLERMO    010000739002038022014MCOL BASICO GENERAL DE GUABITO                     BA  MAR089710BOCAS DEL TOCHANGUINOLA       GUABITO           JUL2816201712010106000006                999-999908/03/199728/03/201600000162 
RIOS           ANGEL        060000720001973092015MSECUNDARIA DE MONAGRILLO (SEGUNDO  FAMILIAR CANO) ME  JUL099710HERRERA     LOS POZOS         LOS CERROS DE PAJAJUL2816201712010403000003                999-999909/07/199728/07/201600000154 
SOLIS          URIEL        090000745002227252013MCOL JOSE BONIFACIO ALVARADO                       CC  JUL279510VERAGUAS    CALOBRE           GUARUMAL          JUL2816201712010403000003                999-999927/07/199528/07/201600000144 
MARTINEZ       KEVIN        090000735002349022008MNOCTURNA OFICIAL URRACA                           RC  OCT218910VERAGUAS    SANTIAGO          LOS ALGARROBOS    JUL2816201712010403000003                999-999921/10/198928/10/201600000153 
TENORIO        MARIO        020000729001366092010MIPT EL COPE                                       QW  JUL209210COCLE       LA PINTADA        EL HARINO         JUL2816201712010403000003                999-999920/07/199228/07/201600000150 
LEZCANO        JOSUE        040000776000647092014MSECUNDARIA DE ASERRIO                             LZ  FEB249510CHIRIQUI    BUGABA            SAN ANDRES        JUL2816201712010403000003                999-999924/02/199528/02/201600000155 
VILLARRETA     CLAUDINO     030000738000864202014MIPT DE COLON                                      JU  MAR209610COLON       CHAGRES           PLAMAS BELLAS     JUL2816201712010403000003                999-999920/03/199628/03/201600000156 
BOODIE         CARLOS       010000737002492022013MSECUNDARIA DE ALMIRANTE                           LY  FEB079610BOCAS DEL TOCHANGUINOLA       ALMIRANTE         JUL2816201712010403000003                999-999907/02/199628/02/201600000158 
BLANFORD       NATHANIEL    010000739000982092013MSECUNDARIA DE ALMIRANTE                           LY  FEB269610BOCAS DEL TOCHANGUINOLA       ALMIRANTE         JUL2816201712010403000003                999-999926/02/199628/02/201600000161 
MOLINA         ELADIO       010000725002111142009MCOL ROGELIO JOSUE IBARRA                          DM  NOV089110BOCAS DEL TOCHANGUINOLA       ALMIRANTE         JUL2816201712010403000003                999-999908/11/199128/11/201600000165 
CABALLERO      EDGAR        010000741000582022015MINST BILINGUE VIRGEN DE GUADALUPE                 NZ  NOV049720BOCAS DEL TOBOCAS DEL TORO    BASTIMENTOS       JUL2816201712010403000003                999-999904/11/199728/11/201600000157 
JURADO         RICARDO      010000726001361022011MNOCTURNA DE CHANGUINOLA                           LB  AUG138810BOCAS DEL TOCHANGUINOLA       CHANGUINOLA (CABECJUL2816201712010403000003                758-957313/08/198828/08/201600000164 
LIVINGSTON     ARON         010000735001929022015MNOCTURNA DE BOCAS DEL TORO                        KZ  JUN259510BOCAS DEL TOBOCAS DEL TORO    BASTIMENTOS       JUL2816201712010403000003                757-938825/06/199528/06/201600000159 
MURILLO        ONESIMO      080000917000966022015MIPT DE BOCAS DEL TORO                             JR  APR069710BOCAS DEL TOCHANGUINOLA       GUABITO           JUL2816201712010403000003                999-999906/04/199728/04/201600000163 
RODRIGUEZ      LENNIG       040000758001412092010MNOCTURNA DE ALMIRANTE                             KX  SEP199110BOCAS DEL TOCHANGUINOLA       ALMIRANTE         JUL2816201712010403000003                758-372319/09/199128/09/201600000160 
GARMENDIA      JAVIER       010000722001921022016MNOCTURNA DE BOCAS DEL TORO                        KZ  APR039010BOCAS DEL TOCHANGUINOLA       EL EMPALME        JUL2816201712010403000003                999-999903/04/199028/04/201600000166 
SALAZAR        ELEAZAR      090000751001430232015MIPT DE VERAGUAS                                   KE  DEC139610VERAGUAS    SAN FRANCISCO     LOS HATILLOS      JUL2816201712010403000003                999-999913/12/199628/12/201600000173 
PEREZ          JORGE        040000775000021092012MESC SECUNDARIA NOCTURNA DE DOLEGA                 VM  DEC129410COCLE       ANTON             ANTON (CABECERA)  JUL2816201712010403000003                999-999912/12/199428/12/201600000171 
ATENCIO        WILFREDO     040000795000244022015MESC SEC EL PROGRESO                               FB  APR179810CHIRIQUI    BARU              PROGRESO          JUL2816201712010403000003                999-999917/04/199828/04/201600000168 
FITERE         MELITON      090000748001367302015MIPT DE SONA                                       NE  AUG099610VERAGUAS    CALOBRE           SONA (CABEC.)     JUL2816201712010403000003                999-999909/08/199628/08/201600000174 
LOPEZ          LUIS         080000936002387022014MIPT ZAPALLAL                                      KR  SEP099610DARIEN      CHEPIGANA         RIO IGLESIAS      JUL2816201712010403000003                999-999909/09/199628/09/201600000167 
LOAISIGA       EMANUEL      030000726000459022015MNOCTURNA DE COLON                                 LD  JAN149010COLON       COLON             CATIVA            JUL2816201712010403000003                999-999914/01/199028/01/201600000172 
VANELA         EDUARDO      090000734000073192008MIPT DE VERAGUAS                                   KE  NOV059010VERAGUAS    SAN FRANCISCO     SAN FCO. (CABEC.) JUL2816201712010403000003                999-999905/11/199028/11/201600000169 
SALAZAR        GUILLERMO    080000899001942012012MIPT AGROFORESTAL ALTO DE PIEDRA                   RQ  MAY279510VERAGUAS    SANTA FE          GATUNCITO         JUL2816201712010403000003                999-999927/05/199528/05/201600000170 
TORIBIO        JAIROL       090000752000879232015MIPT DE VERAGUAS                                   KE  NOV069710VERAGUAS    SANTA FE          SANTA FE (CABEC.) JUL2816201712010403000003                999-999906/11/199728/11/201600000182 
GAITAN         IVAN         090000746000436092014MINST COMP Y LABORAL DE VERAGUAS                   GM  JUL189520VERAGUAS    SANTIAGO          PONUGA            JUL2816201712010106000006                999-999918/07/199528/07/201600000180 
QUINTERO       LUIS         080000924001279012015MIPT CESAR CLAVEL MENDEZ                           SE  NOV189710VERAGUAS    LA MESA           BISVALLES         JUL2816201712010106000006                999-999918/11/199728/11/201600000177 
PARDO          NATANAEL     090000741000317222015MIPT NOCTURNO DE VERAGUAS                          KP  AUG069310VERAGUAS    LA MESA           LA MESA (CABEC.)  JUL2816201712010403000003                999-999906/08/199328/08/201600000181 
JIMENEZ        OSCAR        080000895000186022012MESC SEC EL PROGRESO                               FB  JUN289510VERAGUAS    LA MESA           SAN BARTOLO       JUL2816201712010403000003                999-999928/06/199528/06/201600000178 
CHAMBERS       KEVIN        090000740002233092010MINST COMP Y LABORAL DE VERAGUAS                   GM  MAY049320VERAGUAS    ATALAYA           ATALAYA (CABECERA)JUL2816201712010403000003                999-999904/05/199328/05/201600000188 
HURTADO        ALFONSO      080000862001483022015MIPT ZAPALLAL                                      KR  SEP079210DARIEN      PINOGANA          YAVIZA            JUL2816201712010403000003                299-441607/09/199228/09/201600000187 
QUIROZ         DAVID        030000730001814022012MIPT AGROFORESTAL ALTO DE PIEDRA                   RQ  AUG179410VERAGUAS    SANTA FE          SANTA FE (CABEC.) JUL2816201712010403000003                999-999917/08/199428/08/201600000183 
NAVARRO        JONATHAN     090000750000517012015MIPT CESAR CLAVEL MENDEZ                           SE  JUL119710VERAGUAS    SANTIAGO          SANTIAGO (CABEC.) JUL2816201712010403000003                000-000011/07/199728/07/201600000195 
CABALLERO      RUMALDO      040000780002118022014MSECUNDARIA DE LAS LAJAS                           MB  AUG099510CHIRIQUI    REMEDIOS          LAJERO            JUL2816201712010403000003                999-999909/08/199528/08/201600000184 
RECORD         ARQUIMEDEZ   010000737000529022010FSECUNDARIA DE ALMIRANTE                           LY  JUN169210BOCAS DEL TOCHANGUINOLA       ALMIRANTE         JUL2816201712010403000003                999-999916/06/199228/06/201600000175 
WILLIAMS       LUIS         030000740001627022014MINST DE MARINA MERCANTE OCUP DE PANAMA            GW  NOV139620COLON       COLON             CRISTOBAL         JUL2816201712010403000003                999-999913/11/199628/11/201600000201 
VALDES         MAIKEL       040000792002378142015MSECUNDARIA DE ALANJE                              LX  FEB169810CHIRIQUI    ALANJE            DIVALA            JUL2816201712010403000003                999-999916/02/199828/02/201600000179 
JIMENEZ        ANGEL        090000749002154282015MIPT CESAR CLAVEL MENDEZ                           SE  JUL039610VERAGUAS    CANAZAS           CANAZAS (CABEC.)  JUL2816201712010403000003                999-999903/07/199628/07/201600000193 
IBARRA         ISAAC        020000725001479192008MIPT LEONILA PINZON DE GRIMALDO                    KK  JUL199010COCLE       LA PINTADA        LLANO GRANDE      JUL2816201712010403000003                999-999919/07/199028/07/201600000198 
ZAMBRANO       TOMAS        090000751000146012015MIPT AGROFORESTAL ALTO DE PIEDRA                   RQ  SEP189710VERAGUAS    SANTIAGO          SANTIAGO (CABEC.) JUL2816201712010403000003                999-999918/09/199728/09/201600000197 
SUIRA          REINEL       040000788000980022014MCOL DANIEL OCTAVIO CRESPO                         BK  JUL109610CHIRIQUI    BUGABA            LA CONCEPC. (CABECJUL2816201712010403000003                999-999910/07/199628/07/201600000196 
NUÑEZ         JUAN         030000732002043012012MIPT GIL BETEGON MARTINEZ (COLON)                  MJ  NOV179410COLON       CHAGRES           SALUD             JUL2816201712010403000003                999-999917/11/199428/11/201600000191 
HERNANDEZ      JESUS        040000778000644142013MSECUNDARIA DE ALANJE                              LX  AUG239510CHIRIQUI    ALANJE            EL TEJAR          JUL2816201712010403000003                999-999923/08/199528/08/201600000192 
TENORIO        LUIS         020000737000090022015MCOL ANGEL MARIA HERRERA                           AY  MAR129610COCLE       OLA               LA PAVA           JUL2816201712010403000003                999-999912/03/199628/03/201600000190 
TEJEIRA        OLIVER       090000753000659212010MIPT PABLO PINZON (PONUGA)                         RX  MAR169510VERAGUAS    SANTIAGO          PONUGA            JUL2816201712010403000003                999-999916/03/199528/03/201600000185 
PINZON         JOSE         040000793001718012014MIPT CHIRIQUI GRANDE (BOCAS DEL TORO)              JL  MAY179610CHIRIQUI    DAVID             PEDREGAL          JUL2816201712010403000003                999-999917/05/199628/05/201600000204 
VEJERANO       DAVID        040000762001529022013MNOCTURNA DE DAVID                                 LF  JUL189210CHIRIQUI    BARU              PROGRESO          JUL2816201712010403000003                999-999918/07/199228/07/201600000199 
SANDOVAL       RAUL         030000726000298092014MESC BELLA VISTA                                   EP  DEC188920COLON       PORTOBELO         PORTOBELO (CABEC.)JUL2816201712010403000003                999-999918/12/198928/12/201600000200 
CARPIO         YONI         050000711001220092013MIPT ALEJANDRO CASTILLO (DARIEN)                   JJ  MAY219510DARIEN      CHEPIGANA         LA PALMA (CABECERAJUL2816201712010403000003                999-999921/05/199528/05/201600000186 
QUIROS         JOSE         020000734000142092012MCOL ANGEL MARIA HERRERA                           AY  SEP289410COCLE       PENONOME          PENONOME (CABEC.) JUL2816201712010403000003                999-999928/09/199428/09/201600000210 
GUERRA         KIRT         080000944000901022006MINST BILINGUE VIRGEN DE GUADALUPE                 NZ  DEC228820PANAMA      LA CHORRERA       BARRIO COLON      JUL2816201712010403000003                999-999922/12/198828/12/201600000205 
VALDIVIESO     BENITO       080000865000330022011FINST AMERICA                                      FO  OCT289210PANAMA      PANAMA            EL CHORRILLO      JUL2816201712010403000003                291-053128/10/199228/10/201600000206 
GUERRA         JORGE        010000731000994022012MCOL BILINGUE MADIZ CANAJIBA                       BG  MAY289320BOCAS DEL TOCHANGUINOLA       LAS TABLAS        JUL2816201712010403000003                999-999928/05/199328/05/201600000194 
GUERRA         KEVIN        040000802001246022015MESC SEC EL PROGRESO                               FB  NOV189710CHIRIQUI    BARU              PROGRESO          JUL2816201712010403000003                999-999918/11/199728/11/201600000207 
OTERO          EDWIN        090000748002088272015MCENTRO EDUCATIVO HERMANA MARIA MERCEDES           UY  SEP089610VERAGUAS    CANAZAS           CERRO DE PLATA    JUL2816201712010403000003                999-999908/09/199628/09/201600000189 
CARPIO         WUILBERTO    050000710000638142013MIPT ALEJANDRO CASTILLO (DARIEN)                   JJ  AUG109210DARIEN      CHEPIGANA         LA PALMA (CABECERAJUL2816201712010403000003                999-999910/08/199228/08/201600000176 
GUERRA         CELSO        040000804001282212015MIPT DE BARU                                       JQ  MAY299710CHIRIQUI    BARU              BACO              JUL2816201712010403000003                999-999929/05/199728/05/201600000208 
JIMENEZ        WALTER       040000792000929122015MSECUNDARIA DE ASERRIO                             LZ  JAN099810CHIRIQUI    BUGABA            ASERRIO DE GARICHEJUL2816201712010403000003                999-999909/01/199828/01/201600000209 
RODRIGUEZ      IRVING       090000748000537142015MCENTRO DE TELE EDUCACION SANTA FE                 VL  AUG139610VERAGUAS    SANTA FE          SANTA FE (CABEC.) JUL2816201712010403000003                999-999913/08/199628/08/201600000202 
SANDOVAL       RANDOL       030000736001455012014MIPT GIL BETEGON MARTINEZ (COLON)                  MJ  MAR259610COLON       PORTOBELO         PORTOBELO (CABEC.)JUL2816201712010403000003                999-999925/03/199628/03/201600000203 
BAKER          RAMIRO       010000740000727022014MINST WILLIAM H KILPATRICK                         JG  DEC029320BOCAS DEL TOCHIRIQUI GRANDE   CANQUINTU         JUL2816201712010403000003                999-999902/12/199328/12/201600000211 
TESIS          JEAN CARLOS  030000740001357022015MINST DE MARINA MERCANTE OCUPACIONAL (HERRERA)     VY  JAN019820COLON       CHAGRES           ACHIOTE           JUL2916201712010403000003                999-999901/01/199829/01/201600000212 
PIMENTEL       JOEL         090000743001141012013MINST AGROP JESUS DE NAZARENO                      JI  JUN019420VERAGUAS    SANTIAGO          LA PENA           JUL2916201712010403000003                999-999901/06/199429/06/201600000214 
PINTO          LUIS         090000749000634012014MINST AGROP JESUS DE NAZARENO                      JI  NOV019620VERAGUAS    SAN FRANCISCO     SAN JOSE          JUL2916201712010403000003                999-999901/11/199629/11/201600000216 
LANA           BRIGIDO      050000713000247142012MIPT ALEJANDRO CASTILLO (DARIEN)                   JJ  JAN189410DARIEN      CHEPIGANA         LA PALMA (CABECERAJUL2916201712010403000003                999-999918/01/199429/01/201600000213 
MUÑOZ         JESUS        090000750001952092014MINST PROF OMAR TORRIJOS H                         IK  MAY179610VERAGUAS    SANTIAGO          LA PENA           JUL2916201712010403000003                999-999917/05/199629/05/201600000218 
CAMPOS         MAXIMINO     060000717000081092015MNOCTURNA DE AZUERO                                MW  MAY069310HERRERA     LAS MINAS         CHEPO             JUL2916201712010403000003                999-999906/05/199329/05/201600000215 
PERALTA        JOSE         080000920001549092015MINST POLITECNICO BILINGUE GOSEN                   XT  MAR269720PANAMA      CHAME             LAS LAJAS         JUL2916201712010403000003                999-999926/03/199729/03/201600000223 
RODRIGUEZ      ALVARO       010000743002068022014MSECUNDARIA DE ALMIRANTE                           LY  AUG139510BOCAS DEL TOCHANGUINOLA       LAS TABLAS        JUL2916201712010403000003                998-692913/08/199529/08/201600000219 
TORIBIO        YUNIER       090000731002485302009MIPT DE VERAGUAS                                   KE  NOV038910VERAGUAS    CALOBRE           CALOBRE (CABEC.)  JUL2916201712010403000003                999-999903/11/198929/11/201600000217 
SOLIS          SEBASTIAN    090000752000067192015MIPT DE VERAGUAS                                   KE  JAN209810VERAGUAS    SANTIAGO          SANTIAGO (CABEC.) JUL2916201712010403000003                999-999920/01/199829/01/201600000220 
TUGRI          JOSE         040000752000530022008MSECUNDARIA DE LAS LAJAS                           MB  JAN249010CHIRIQUI    BARU              LIMONES           JUL2916201712010403000003                999-999924/01/199029/01/201600000226 
RODRIGUEZ      ERWIN        090000746000314222013MIPT DE LA CHORRERA                                JX  OCT209510PANAMA      LA CHORRERA       BARRIO COLON      JUL2916201712010403000003                999-999920/10/199529/10/201600000224 
SANTOS         ALAN         010000730001002012010MIPT RIO LUIS                                      WU  FEB199210BOCAS DEL TOCHIRIQUI GRANDE   PIEDRA ROJA       JUL2916201712010403000003                999-999919/02/199229/02/201600000222 
VERGARA        JAIME        080000882001656022015MCENTRO LABORAL NOCT DE METETI                     NA  FEB189210PANAMA      SAN MIGUELITO     AMELIA D. DE ICAZAJUL2916201712010403000003                999-999918/02/199229/02/201600000221 
RODRIGUEZ      FORTUNATO    030000733001774092012MCOL JOSE GUARDIA VEGA                             CG  DEC299410COLON       COLON             CIRICITO          JUL2916201712010403000003                999-999929/12/199429/12/201600000227 
ABREGO         ARON         010000741001356022009MESC JESUS HECTOR GALLEGO                          SG  JAN159110VERAGUAS    SANTA FE          CALOVEBORA        JUL2916201712010403000003                999-999915/01/199129/01/201600000225 
TROTMAN        JAVIER       010000723000295022007MCOL DE KUSAPIN                                    QR  FEB119010BOCAS DEL TOCHIRIQUI GRANDE   CHIRIQUI G. (CABECJUL2916201712010403000003                999-999911/02/199029/02/201600000228 
RODRIGUEZ      ELIBERTO     060000716000460012011MIPT DE TONOSI                                     KD  JAN029210HERRERA     LAS MINAS         CHEPO             JUL2916201712010403000003                999-999902/01/199229/01/201600000230 
CUÑAPA        ANTONIO      050000714000215092010MCENTRO EDUCATIVO JOSE DEL CARMEN MEJIA            RZ  MAR179210PANAMA      SAN MIGUELITO     BELISARIO PORRAS  JUL2916201712010403000003                999-999917/03/199229/03/201600000229 
BEKER          MARILIN      120000700001206282015FIPT DE BOCAS DEL TORO                             JR  SEP269710BOCAS DEL TOCHANGUINOLA       CHANGUINOLA (CABECAUG0116201708130111000011                000-000026/09/199701/09/201600000234 
BOSQUEZ  G.    ANA P.       090000752002121042016FCOL SAN AGUSTIN                                   DR  JUL309820PANAMA      SAN MIGUELITO     JOSE D. ESPINAR   AUG01162017010801010000010000020000020817277-628330/07/199801/07/201600000231 
RODRIGUEZ      JAIRO J.     020000733001402022015FNOCTURNA DE AGUADULCE                             KW  JUL159310COCLE       AGUADULCE         EL CRISTO         AUG0116201713130113000013000008      13  000-000015/07/199301/07/201600000245 
CASTILLO       DORALIS      030000742002386022016FCOL ABEL BRAVO                                    AV  FEB069910COLON       COLON             CRISTOBAL         AUG0116201705060507000007                000-000006/02/199901/02/201600000249 
ATENCIO C.     MILAGROS     090000755000276022016FINST URRACA                                       JF  JUN309910VERAGUAS    SANTIAGO          CANTO DEL LLANO   AUG01162017010801010000010000040000030908000-000030/06/199901/06/201600000236 
BERROCAL       AMELIA       080000925000037022015FCOL SEC INGENIERO TOMAS GUARDIA                   XD  DEC049710PANAMA      LA CHORRERA       BARRIO BALBOA     AUG01162017010801010000010000030000041409244-571904/12/199701/12/201600000240 
AYARZA G.      KEYLA Y.     100000711001549092015FINSTITUTO COMERCIAL SAHILA NIBAGUINYA CABÚ       ACK MAR169710PANAMA      PANAMA            SAN FELIPE        AUG01162017011303010000010000010000151103399-159216/03/199701/03/201600000238 
CASCO          ESTHEFANI    010000745001223022016FINST ADVENTISTA DE CHANGUINOLA                    PB  MAR059920BOCAS DEL TOCHANGUINOLA       CHANGUINOLA (CABECAUG0116201708170102000002000011      13  000-000005/03/199901/03/201600000282 
RUDAS H.       NADELIS D.   080000933001550062016FCOL DE LAS ESCLAVAS                               CL  JUL249820PANAMA      SAN MIGUELITO     OMAR TORRIJOS     AUG01162017010801010000010000040000040906237-742624/07/199801/07/201600000256 
CASTILLERO D   MARTIN       070000711002473222016MIPT DE AZUERO                                     JP  JAN149910LOS SANTOS  LOS SANTOS        LA VILLA DE LOS SAAUG01162017030301020000020000180000120311000-000014/01/199901/01/201600000232 
VALDES         HILIAN       030000730000217092010MCENTRO SAN MIGUEL FEBRES                          UC  JAN219310COLON       COLON             CRISTOBAL         AUG0116201705050101000001                449-351821/01/199301/01/201600000279 
NORIEGA C      ARYS K       060000721001895022016FSECUNDARIA DE MONAGRILLO (SEGUNDO  FAMILIAR CANO) ME  JUL299810HERRERA     CHITRE            LA ARENA          AUG01162017010901040000040000010000021417974-596729/07/199801/07/201600000272 
GONZALEZ G.    ALEX         080000936002280022016MCOL VENANCIO FENOSA PASCUAL                       EM  SEP199810PANAMA      CHEPO             CHEPO (CABEC.)    AUG01162017010801010000010000040000020908296-892719/09/199801/09/201600000233 
SOLIS R.       FABIANA C.   030000749000722022016FCOL ABEL BRAVO                                    AV  NOV169810COLON       COLON             BARRIO NORTE      AUG01162017010801010000010000010000040809442-136716/11/199801/11/201600000241 
HENRY R.       ABDIEL M.    030000743001773022016MCOL ABEL BRAVO                                    AV  APR309910COLON       COLON             BARRIO NORTE      AUG01162017010801010000010000040000010908472-510730/04/199901/04/201600000246 
VILLARRETA S.  ANTHONY J.   080000932001921022016MESC SEC PEDRO PABLO SANCHEZ                       FD  JUN199810PANAMA      LA CHORRERA       BARRIO BALBOA     AUG01162017010802030000030000020000010827000-000019/06/199801/06/201600000273 
RODRIGUEZ N    ANGELICA M   080000928000684022016FINST RUBIANO                                      IN  APR139710PANAMA      SAN MIGUELITO     OMAR TORRIJOS     AUG01162017010901040000040000010000152711000-000013/04/199701/04/201600000266 
BARCENAS F     PAOLA A.     080000936002355022016FCOL LA SALLE (MARGARITA)                          CK  OCT239820COLON       COLON             CATIVA            AUG01162017010901040000040000030000060403444-256123/10/199801/10/201600000281 
FERNANDEZ B.   DIEGO A.     080000938001543022016MCOL EUROPEO PANAMA                                YH  NOV219820PANAMA      PANAMA            SAN FELIPE        AUG01162017010801010000010000010000011427388-915621/11/199801/11/201600000276 
VILLAMIL R.    GLORIA E.    090000755001471022016FESC SEC EL BUEN PASTOR                            EZ  APR039920PANAMA      SAN MIGUELITO     OMAR TORRIJOS     AUG01162017010801010000010000010000011404279-908503/04/199901/04/201600000260 
DIAZ HING      MADELI Y.    030000742001614022016FCOL LA SALLE (MARGARITA)                          CK  DEC159820COLON       COLON             CRISTOBAL         AUG0116201701080101000001000003      04  449-331615/12/199801/12/201600000293 
GONZALEZ D.    KAREN G.     020000738002166022014FCOL SALOMON PONCE AGUILERA                        DQ  DEC229610COCLE       ANTON             EL CHIRU          AUG0116201706060601000001000001      01  000-000022/12/199601/12/201600000311 
TAYLOR V.      ABIHAIL M.   080000935000794022016FCOL LA SALLE (MARGARITA)                          CK  SEP049820COLON       COLON             CRISTOBAL         AUG0116201701080101000001000003      04  473-097104/09/199801/09/201600000296 
SREEDHARAN S.  RISHI        030000744001193042017MCOL INTERNACIONAL DEL CARIBE                      BW  JAN019820COLON       COLON             CRISTOBAL         AUG0116201701080101000001                470-020301/01/199801/01/201600000252 
ESTWICK        NAZADI       030000737000876142015FCOL ABEL BRAVO                                    AV  SEP099610COLON       COLON             BARRIO NORTE      AUG0116201705130111000011                447-052809/09/199601/09/201600000287 
HEURTEMATTE C. JEANINE A.   030000743000651022016FCOL LA SALLE (MARGARITA)                          CK  MAY259920COLON       COLON             CATIVA            AUG01162017010801010000010000030000010427474-071825/05/199901/05/201600000288 
MITRE V.       CRISTINA S.  070000903000302092014FESC PROF ISABEL HERRERA O                         EX  MAR099610PANAMA      PANAMA            SAN FELIPE        AUG0116201711130111000011000010      13  291-505309/03/199601/03/201600000319 
SAMANIEGO G.   ALEXANDRA N. 080000946001809022016FINST EPISCOPAL SAN JOSE (CHORRERA)                GY  JUL069920PANAMA      CAPIRA            CAPIRA (CABEC.)   AUG01162017010801010000010000010000040709258-556806/07/199901/07/201600000243 
SANCHEZ R.     GLADYS E.    090000753000241022016FINST URRACA                                       JF  JUL099810PANAMA      PANAMA            BETANIA           AUG01162017013201030000030000020000030304000-000009/07/199801/07/201600000283 
RIOS           LESLY DAYANA 080000958000314092016FIPT DE COMERCIO                                   JV  JUL159810PANAMA      PANAMA            SAN FELIPE        AUG0116201701100301000001                268-743515/07/199801/07/201600000280 
RODRIGUEZ G.   AMBAR L.     080000942002271022016FINST EPISCOPAL SAN JOSE (CHORRERA)                GY  APR029920PANAMA      CAPIRA            CAPIRA (CABEC.)   AUG0116201701080101000001                345-607302/04/199901/04/201600000237 
SANTURNO       SANDRA       080000944000364022016FESC SEC PEDRO PABLO SANCHEZ                       FD  MAY199910PANAMA      ARRAIJAN          JUAN D. AROSEMENA AUG01162017010801010000010000010000010801251-648019/05/199901/05/201600000307 
BARROSO        SILENA       030000742001902022016FCOL ABEL BRAVO                                    AV  MAR079910COLON       COLON             CATIVA            AUG0116201705170102000002                000-000007/03/199901/03/201600000318 
PORTUGAL LEE   LIA DARNEL   030000741001428022016FCOL LA SALLE (MARGARITA)                          CK  SEP059820COLON       COLON             CRISTOBAL         AUG01162017010801010000010000010000020718474-000605/09/199801/09/201600000304 
SMALL WORRELL  TRYSHA E.    030000743000274022016FCOL LA SALLE (MARGARITA)                          CK  APR239920COLON       COLON             CRISTOBAL         AUG01162017010801010000010000030000010427449-482623/04/199901/04/201600000298 
SANCHEZ MOJICA MARIA        080000926000120022016FESC SEC PEDRO PABLO SANCHEZ                       FD  DEC129710PANAMA      LA CHORRERA       BARRIO BALBOA     AUG01162017010801010000010000040000010908249-017112/12/199701/12/201600000309 
CUMMINGS A.    KEREN K.     030000742001174022016FCOL LA SALLE (MARGARITA)                          CK  DEC099820COLON       COLON             CRISTOBAL         AUG0116201701080303000003000003      04  474-349409/12/199801/12/201600000285 
AGRAZAL B.     STEFANY L.   020000741001812022016FCOL RODOLFO CHIARI                                DL  JUN229810COCLE       NATA              CAPELLANIA        AUG01162017010801010000010000020000010814997-022222/06/199801/06/201600000315 
CARVAJAL F     JONATHAN L   070000711000885222016MIPT DE AZUERO                                     JP  JUL189710LOS SANTOS  LOS SANTOS        LLANO LARGO       AUG01162017030301020000020000180000120311923-064418/07/199701/07/201600000274 
QUIROS V.      ERIKA O.     020000743000831022016FCOL RODOLFO CHIARI                                DL  MAR119910COCLE       AGUADULCE         EL CRISTO         AUG01162017010802020000020000040000010914997-596611/03/199901/03/201600000312 
GOMEZ          ROSMEIRY     080000940000569262016FCOL MOISES CASTILLO OCANA                         CX  JAN279910PANAMA      ARRAIJAN          CERRO SILVESTRE   AUG0116201701100301000001000001      10  251-178227/01/199901/01/201600000297 
FLOREZ         MARIA FERNAND080000942002196092016FCOL SAN VICENTE DE PAUL                           EC  MAR239920PANAMA      SAN MIGUELITO     RUFINA ALFARO     AUG01162017010501010000010000020000011818390-399123/03/199901/03/201600000277 
ORTEGA D.      SILVIA L.    030000738002236092015FINST BENIGNO JIMENEZ GARAY                        FQ  FEB109710COLON       COLON             BARRIO NORTE      AUG0116201701130113000013                442-525310/02/199701/02/201600000323 
LASSO T.       REINIER A.   080000939001051022016MINST EPISCOPAL SAN JOSE (CHORRERA)                GY  NOV259820PANAMA      LA CHORRERA       BARRIO BALBOA     AUG01162017010801010000010000010000041209254-827125/11/199801/11/201600000250 
SMALL F        KRISTIANY DEL030000744001310022016FCOL LA SALLE (MARGARITA)                          CK  NOV069920COLON       COLON             CATIVA            AUG01162017010901040000040000020000060909442-550306/11/199901/11/201600000239 
ABREGO         DANIELA      090000757000580022016FINST URRACA                                       JF  JUL169810VERAGUAS    MONTIJO           MONTIJO (CABEC.)  AUG01162017010201050000050000030000013224000-000016/07/199801/07/201600000255 
AROSEMENA Z    LUIS CARLOS  080000931001493142016MESC SEC PEDRO PABLO SANCHEZ                       FD  MAY099810PANAMA      LA CHORRERA       BARRIO BALBOA     AUG01162017010901020000020000120000041101344-564809/05/199801/05/201600000235 
SERRANO N      FLOR E       040000818000582022016FCOL LA SALLE (MARGARITA)                          CK  JUN259820COLON       COLON             BARRIO NORTE      AUG01162017010901040000040000060000020909442-774825/06/199801/06/201600000242 
JOHNSTON       WILLESLEY A. 080000923000835042015MESCUELA BILINGÜE SANTO DOMINGO SAVIO             YF  SEP039720PANAMA      SAN MIGUELITO     RUFINA ALFARO     AUG0116201701320403000003000001      12  239-657303/09/199701/09/201600000314 
PEREZ          LILIZBETH    030000742001610022016FINST RUFO A GARAY                                 IO  DEC159810COLON       COLON             CRISTOBAL         AUG0116201705140103000003                000-000015/12/199801/12/201600000352 
CORTES         GABRIELA     030000743000639042016FCOL DE LA SALLE                                   BL  MAY129920COLON       COLON             BARRIO NORTE      AUG01162017012701010000010000020000011701474-321712/05/199901/05/201600000328 
PINTO V.       ADELYS L.    060000722000372092016FIPT DE TONOSI                                     KD  DEC299810LOS SANTOS  TONOSI            EL BEBEDERO       AUG01162017070901020000020000090000011111000-000029/12/199801/12/201600000331 
GARCIA J.      YORLENIS M.  070000711001667092016FIPT DE TONOSI                                     KD  MAR299810LOS SANTOS  TONOSI            TONOSI (CABEC.)   AUG0116201707090102000002000001      10  000-000029/03/199801/03/201600000339 
MONROY M       MERILS M     070000711001551042016FACAD BILINGUE NUEVA ESPERANZA                     AA  MAY179810HERRERA     CHITRE            CHITRE (CABECERA) AUG01162017010901040000040000030000010405996-434317/05/199801/05/201600000321 
ROMERO C.      CHRISTIAN E. 030000740001820252016MCOL ABEL BRAVO                                    AV  APR229810COLON       COLON             CATIVA            AUG01162017013201040000040000010000011224474-645422/04/199801/04/201600000295 
CASTRO D       JORGE L      070000711001758222016MIPT DE AZUERO                                     JP  JUN199810LOS SANTOS  LOS SANTOS        LOS OLIVOS        AUG01162017030301020000020000120000011124923-064419/06/199801/06/201600000278 
MELENDEZ B.    PRISCILA R.  070000710001477022015FCOL MANUEL MARIA TEJADA ROCA                      CS  JUL309610LOS SANTOS  LAS TABLAS        LAS TABLAS (CABECEAUG0116201701080101000001000001      07  994-616530/07/199601/07/201600000325 
HUC Q.         ANDREA N.    030000743000695042016FCOL DE LA SALLE                                   BL  APR099920COLON       COLON             CRISTOBAL         AUG01162017010901040000040000020000020810470-084409/04/199901/04/201600000336 
RODRIGUEZ R.   MARISEL      080000904001816022014FCOL HARMODIO ARIAS MADRID                         BT  APR269610PANAMA      CHAME             BEJUCO            AUG0116201706170102000002000002      09  000-000026/04/199601/04/201600000346 
GONZALEZ G.    LIBIA I.     080000941000498022016FCOL EUROPEO PANAMA                                YH  OCT019820PANAMA      PANAMA            SAN FRANCISCO     AUG0116201701080101000001000002      08  226-522601/10/199801/10/2016c        
SANCHEZ        CORINA       010000716000291022005FNOCTURNA DE BOCAS DEL TORO                        KZ  OCT308410BOCAS DEL TOCHANGUINOLA       CHANGUINOLA (CABECAUG01162017080101040000040000010000010105760-068230/10/198401/10/201600000364 
DOMINGUEZ A.   MARIA F.     070000712000132022016FCOL MANUEL MARIA TEJADA ROCA                      CS  MAR219910LOS SANTOS  LAS TABLAS        LAS TABLAS (CABECEAUG01162017010801010000010000010000011827000-000021/03/199901/03/201600000327 
MAUGE          YUSEPH       030000731001928142013MESC BELLA VISTA                                   EP  DEC259320COLON       COLON             CRISTOBAL         AUG0116201705100101000001                449-127325/12/199301/12/201600000374 
ORTEGA         ANGEL        030000740001944142015MACAD SANTA MARIA                                  AJ  MAR239820COLON       COLON             CATIVA            AUG01162017010606010000010000020000022405442-369723/03/199801/03/201600000362 
VIDAL RAMOS    KEYSSI JOAN  080000938001775092015FESC LABORAL PARA JOVENES Y ADULTOS BET-EL DE COLONAAY JAN159820PANAMA      PANAMA            SAN FELIPE        AUG0116201711110212000012                000-000015/01/199801/01/201600000324 
MARIANO SOLIS  MARLENI      040000784002347092015FIPT CHICHICA                                      QJ  DEC299510PANAMA      PANAMA            SAN FELIPE        AUG0116201711130111000011                000-000029/12/199501/12/201600000360 
SAEZ N.        DEISI A.     070000712000116092016FIPT DE TONOSI                                     KD  MAR129910LOS SANTOS  TONOSI            EL BEBEDERO       AUG0116201707090102000002000001      10  000-000012/03/199901/03/201600000347 
MORENO G.      MAYLEN E.    050000712002015092016FIPT DE TONOSI                                     KD  JUL309710LOS SANTOS  TONOSI            EL CACAO          AUG0116201707090102000002000001      10  000-000030/07/199701/07/201600000350 
PEREZ P        KARLA N      060000721000592222016FIPT DE AZUERO                                     JP  DEC059710LOS SANTOS  LOS SANTOS        LA VILLA DE LOS SAAUG01162017030301180000180000120000061101923-064405/12/199701/12/201600000262 
MARTINEZ R.    DANIEL       080000941000604042016MCOL SAN VICENTE DE PAUL                           EC  FEB209920PANAMA      PANAMA            SAN FELIPE        AUG01162017010801010000010000030000010404398-755920/02/199901/02/201600000363 
PEREZ C.       ELOISA A.    090000755001488022016FINST URRACA                                       JF  MAR049910VERAGUAS    SANTIAGO          SANTIAGO (CABEC.) AUG01162017010801010000010000010000021417958-569604/03/199901/03/201600000351 
DIAZ F         DANIELA DEL C070000712000582022016FCOL FRANCISCO I CASTILLERO                        QA  JUL089910LOS SANTOS  GUARARE           GUARARE (CABECERA)AUG01162017010901040000040000010000012707215-314008/07/199901/07/201600000290 
PINILLA M      MARIA G      070000711000894222016FIPT DE AZUERO                                     JP  NOV139710LOS SANTOS  LOS SANTOS        LA VILLA DE LOS SAAUG01162017030301020000020000180000010306923-064413/11/199701/11/201600000268 
RUIZ C.        SAMUEL D,    080000935000108042016MCOL SAN VICENTE DE PAUL                           EC  AUG319820PANAMA      LA CHORRERA       GUADALUPE         AUG01162017010801010000010000030000010404258-905031/08/199801/08/201600000367 
AROSEMENA      LUIS ANGEL   080000937001382262016MESC PROF ISABEL HERRERA O                         EX  JUN179810PANAMA      ARRAIJAN          VISTA ALEGRE      AUG0116201701100301000001000003      11  000-000017/06/199801/06/201600000310 
GONZALEZ       ILONA LONAIS 080000938002445092016FCENTRO EDUCATIVO MONSENOR FRANCISCO BECKMAN       RT  AUG159810PANAMA      PANAMA            SAN FELIPE        AUG0116201701100301000001000001      10  000-000015/08/199801/08/201600000302 
FLORES R.      CLARITZA Y.  080000934002291022016FINST FERMIN NAUDEAU                               GZ  AUG189810PANAMA      ARRAIJAN          JUAN D. AROSEMENA AUG01162017010801010000010000040000010907000-000018/08/199801/08/201600000359 
GARCIA R.      PAMELA P.    080000942000652022016FINST FERMIN NAUDEAU                               GZ  MAR099910PANAMA      SAN MIGUELITO     RUFINA ALFARO     AUG01162017010801010000010000040000030904396-311909/03/199901/03/201600000355 
MAHBOOBANI J.  SAAGAR G.    030000756001982022016MCOL LA SALLE (MARGARITA)                          CK  FEB229920COLON       COLON             CATIVA            AUG01162017010801010000010000010000032704442-197622/02/199901/02/201600000375 
ZHONG HOU      ROXANA Z.    030000742001910022016FCOL LA SALLE (MARGARITA)                          CK  SEP109820COLON       COLON             BARRIO NORTE      AUG01162017010801010000010000040000020908442-423910/09/199801/09/201600000370 
RAMOS          ADAM         080000908000477122015MINST RUBIANO                                      IN  JUL219610PANAMA      SAN MIGUELITO     BELISARIO FRIAS   AUG0116201701120201000001000001      12  234-838921/07/199601/07/201600000333 
LUQUE R.       SHIRLEY L.   090000754001932022016FINST URRACA                                       JF  JUN289810VERAGUAS    SANTIAGO          SANTIAGO (CABEC.) AUG01162017010801010000010000010000040709998-312828/06/199801/06/201600000381 
DELGADO N.     MILITZA I.   070000711002287142016FCOL MANUEL MARIA TEJADA ROCA                      CS  DEC019810LOS SANTOS  LAS TABLAS        EL PEDREGOSO      AUG01162017070901020000020000060000010605000-000001/12/199801/12/201600000373 
LEZCANO        EDILMA       080000936000941022016FCOL JOSE DOLORES MOSCOTE                          CF  SEP239810PANAMA      PANAMA            SAN FELIPE        AUG01162017012701010000010000180000011101271-016923/09/199801/09/201600000322 
COLOMA         FELIX        080000945000006092015MINST DE ENSEÑANZA LABORAL EMERSON S.A.           YK  APR299920PANAMA      ARRAIJAN          VISTA ALEGRE      AUG01162017011208010000010000010000021212344-273229/04/199901/04/201600000348 
URRIOLA A.     PAOLA E.     080000944000331042016FCOL SAN AGUSTIN                                   DR  APR269920PANAMA      SAN MIGUELITO     RUFINA ALFARO     AUG01162017010801010000010000030000020808512-010026/04/199901/04/201600000384 
RODRIGUEZ      ASTRID       080000928000828022015FCOL JOSE ANTONIO REMON CANTERA                    CB  SEP299710PANAMA      ARRAIJAN          VERACRUZ          AUG01162017012701010000010000100000011301389-001529/09/199701/09/201600000357 
HERNANDEZ L.   BEATRIZ A.   080000931001970022016FSECUNDARIA DE PESE                                MF  JUN079810HERRERA     PESE              EL BARRERO        AUG0116201707090102000002000006      06  000-000007/06/199801/06/201600000358 
LINCK          ANA          080000934000388122016FINST NACIONAL DE PANAMA                           HY  JUL289810PANAMA      ARRAIJAN          VERACRUZ          AUG01162017010606010000010000010000010606250-117028/07/199801/07/201600000284 
MANCILLA       MELISSA      080000932001085262016FCOL MOISES CASTILLO OCANA                         CX  JUN189810PANAMA      ARRAIJAN          VISTA ALEGRE      AUG0116201701100301000001                255-378218/06/199801/06/201600000305 
BERNAL D.      LOURDES G.   060000721002260142016FSECUNDARIA DE MONAGRILLO (SEGUNDO  FAMILIAR CANO) ME  OCT019810HERRERA     CHITRE            LA ARENA          AUG01162017070901020000020000060000010305000-000001/10/199801/10/201600000379 
LAM            SEYANE       080000929001160272016FCOL ANGLO MEXICANO                                AZ  MAR149820PANAMA      PANAMA            SAN FELIPE        AUG01162017011202010000010000020000011212399-415414/03/199801/03/201600000317 
SUIRA V        YOSTING O    060000722001212252016MCOL JOSE DANIEL CRESPO                            CD  SEP209810HERRERA     SANTA MARIA       SANTA MARIA (CABECAUG01162017030301180000180000010000022424000-000020/09/199801/09/201600000299 
ATENCIO        ANGELLY      080000905000628022013FCENTRO EDUCATIVO MONSENOR FRANCISCO BECKMAN       RT  MAY039610PANAMA      PANAMA            EL CHORRILLO      AUG01162017012701010000010000130000121111389-829203/05/199601/05/201600000337 
FLORES         DAYASKA      080000934002024022016FESC ALFRED NOUEL (LA CHORRERA)                    QB  AUG239820PANAMA      CAPIRA            CAPIRA (CABEC.)   AUG01162017012701010000010000030000023232248-559823/08/199801/08/201600000303 
NIETO          JARELIS      030000743001519022016FINST SANTA MARIA DE BELEN                         AAU JUL099920COLON       COLON             CATIVA            AUG01162017010408030000030000040000030904444-205509/07/199901/07/201600000343 
CRUZ P.        ANELENA DEL C020000742000829022016FCOL RODOLFO CHIARI                                DL  SEP249810COCLE       AGUADULCE         AGUADULCE (CABECERAUG01162017060101030000030000140000011101908-092424/09/199801/09/201600000394 
DE GRACIA      MAYRA        080000935000932142016FESC BELLA VISTA                                   EP  AUG279820PANAMA      PANAMA            BETANIA           AUG01162017011202010000010000010000011212261-984427/08/199801/08/201600000376 
ALVAREZ        ROSSEMARY Y. 080000984001206022014FCENTRO LABORAL PARTICULAR NOCTURNO NEHEMIAS       VF  MAY119720PANAMA      CHEPO             CHEPO (CABEC.)    AUG0116201711030117000017000003      01  000-000011/05/199701/05/201600000377 
BARRIA         ALEXANDER    080000942001830092016MACAD BILINGUE NUEVA ESPERANZA                     AA  FEB199910PANAMA      ARRAIJAN          ARRAIJAN (CABECERAAUG01162017010605070000070000020000010606259-281419/02/199901/02/201600000326 
RODRIGUEZ      MAIDA        080000932000517092016FACAD BILINGUE NUEVA ESPERANZA                     AA  MAY269810PANAMA      ARRAIJAN          ARRAIJAN (CABECERAAUG01162017010605070000070000020000011206259-823026/05/199801/05/201600000320 
PALMA          CATHERINE    030000730001446092010FINST BENIGNO JIMENEZ GARAY                        FQ  APR309310COLON       COLON             CATIVA            AUG0116201705110214000014                474-067230/04/199301/04/201600000407 
SARAVIA E.     PAOLA A.     080000936001418022016FINST JUSTO AROSEMENA                              HH  OCT059820PANAMA      PANAMA            SAN FELIPE        AUG01162017010801010000010000090000010208290-608905/10/199801/10/201600000398 
HERNANDEZ      MELISSA      010000734000480022012FIPT DE BOCAS DEL TORO                             JR  SEP249410BOCAS DEL TOCHANGUINOLA       CHANGUINOLA (CABECAUG01162017080401160000160000010000110513758-941624/09/199401/09/201600000405 
ESPINO O.      DIORIOSQUI SH070000711001816142016FCOL JOSE DANIEL CRESPO                            CD  JUN179810LOS SANTOS  LOS SANTOS        LLANO LARGO       AUG0116201707110209000009000001      10  000-000017/06/199801/06/201600000383 
ESPINOSA G.    EMMANUEL A.  040000800002225022016MINST DAVID                                        GQ  JAN079910CHIRIQUI    DAVID             DAVID (CABEC.)    AUG01162017010801010000010000010000090802774-880407/01/199901/01/201600000396 
FRIAS E.       YISSEL O.    080000941000908022016FCENTRO EDUCATIVO MONSENOR FRANCISCO BECKMAN       RT  FEB209910PANAMA      PANAMA            EL CHORRILLO      AUG01162017010801010000010000020000010808000-000020/02/199901/02/201600000345 
BATISTA E.     ISABELLA M.  070000711002309022016FCOL FRANCISCO I CASTILLERO                        QA  DEC149810LOS SANTOS  GUARARE           GUARARE (CABECERA)AUG01162017010801010000010000010000030804000-000014/12/199801/12/201600000400 
BARSALLO       CHRISTIAN    080000941001485022016MESC BELLA VISTA                                   EP  FEB279920PANAMA      ARRAIJAN          CERRO SILVESTRE   AUG01162017011208010000010000020000031224259-742027/02/199901/02/201600000401 
CEDEÑO S.     DAVID A.     080000935000138022016MCOL FRANCISCO I CASTILLERO                        QA  JUL089810LOS SANTOS  GUARARE           LAS TRANCAS       AUG01162017010801010000010000030000010427000-000008/07/199801/07/201600000404 
DOMINGUEZ G.   EVELIA L.    070000711002358022016FCOL MANUEL MARIA TEJADA ROCA                      CS  SEP249810LOS SANTOS  LAS TABLAS        LAS TABLAS (CABECEAUG01162017010801010000010000010000010807000-000024/09/199801/09/201600000408 
CORRALES S     JENNYFER Y   060000721002123022016FCOL JOSE DANIEL CRESPO                            CD  SEP099810HERRERA     CHITRE            CHITRE (CABECERA) AUG01162017031701020000020000010000032704996-479409/09/199801/09/201600000397 
FUENTES GARCIA NATALY SA    04000082400221302    F                                                               000000000004BUGABA                                         02            0000040000090202       /00/0000  /00/0000           
RIOS LOPEZ     JOSE ANGEL   080000759000397022013MCENTRO EDUCATIVO LAB MONTE HOREB                  UX  AUG178220PANAMA      SAN MIGUELITO     OMAR TORRIJOS     AUG0116201711030117000017000006      03  000-000017/08/198201/08/201600000395 
JARAMILLO A.   NATALIE      080000940000096022016FCENTRO EDUCATIVO STELLA SIERRA                    PP  OCT089810PANAMA      ARRAIJAN          ARRAIJAN (CABECERAAUG0116201701170102000002                254-893608/10/199801/10/201600000390 
MALEK          KHIABETH     090000747001730272014FINST PLINI A MOSCOSO                              UN  APR189610LOS SANTOS  LAS TABLAS        LAS TABLAS (CABECEAUG0116201707090102000002                000-000018/04/199601/04/201600000436 
GONZALEZ ARENA CARLA IVETH  080000973002112022016FCENTRO EDUCATIVO STELLA SIERRA                    PP  APR179810PANAMA      ARRAIJAN          BURUNGA           AUG0116201701170102000002                254-893617/04/199801/04/201600000382 
ELLIS D.       GABRIELA M.  080000940000172042016FCOL LAS ESCLAVAS DEL SAG CORAZON DE JESUS         NR  JAN139920PANAMA      PANAMA            SAN FELIPE        AUG0116201701080101000001                315-116913/01/199901/01/201600000391 
KELLY          GABRIELA     080000938001149142016FCOL ELENA CHAVEZ DE PINATE                        BN  DEC169810PANAMA      PANAMA            SAN FELIPE        AUG01162017011202010000010000010000011818273-813216/12/199801/12/201600000428 
NAVARRO G.     DIVA Y.      080000925001181022016FESC BELLA VISTA                                   EP  DEC139720PANAMA      PANAMA            SANTA ANA         AUG01162017011701020000020000010000020808228-783913/12/199701/12/201600000413 
POMARE         JULIANYS     080000943000918022015FINST RUFO A GARAY                                 IO  JAN049810PANAMA      PANAMA            EL CHORRILLO      AUG01162017011202010000010000010000011212292-002504/01/199801/01/201600000341 
PEREZ          RACHEL       080000941000258022016FINST NACIONAL DE PANAMA                           HY  JAN269910PANAMA      ARRAIJAN          BURUNGA           AUG01162017010205040000040000080000051818512-809526/01/199901/01/201600000291 
VERGARA C.     SINDY N.     030000741001565022015FESC BELLA VISTA                                   EP  NOV259720PANAMA      PANAMA            SAN FELIPE        AUG01162017010801010000010000020000011714216-250825/11/199701/11/201600000427 
SANCHEZ CH.    MARIALUISA   080000939001530042016FCOL LAS ESCLAVAS DEL SAG CORAZON DE JESUS         NR  DEC279820PANAMA      PANAMA            SAN FRANCISCO     AUG0116201701080101000001                270-401027/12/199801/12/201600000387 
ANDERSON       ASHLEY       030000743001650022016FINST SANTA MARIA DE BELEN                         AAU JUN119920COLON       COLON             BARRIO NORTE      AUG0116201705270101000001                000-000011/06/199901/06/201600000457 
CALDERON H.    SELENEYDIS A.080000937001865022016FESC BELLA VISTA                                   EP  NOV229820PANAMA      PANAMA            SAN FELIPE        AUG01162017011701020000020000010000062709228-783922/11/199801/11/201600000409 
CEDEÑO V      ARQUIMEDES A 070000711002276012016MINST CORONEL SEG DE VILLARREAL                    GN  DEC019810LOS SANTOS  LAS TABLAS        BAJO CORRAL       AUG0116201703020204000004000018      03  000-000001/12/199801/12/201600000430 
GONZÁLEZ      NATALIA      080000982002480272016FCOL MOISES CASTILLO OCANA                         CX  NOV249810PANAMA      LA CHORRERA       BARRIO COLON      AUG01162017010610030000030000090000020612244-757724/11/199801/11/201600000431 
CLARA F.       MILKA E.     090000744002106142012FINST CHIRIQUI EDUC ABIERTA A DISTANCIA            ABO NOV039310PANAMA      CHEPO             CHEPO (CABEC.)    AUG0116201714110101000001000012      11  224-593803/11/199301/11/201600000422 
MUÑOZ P.      KEILY DEL C. 060000721002375022016FCOL JOSE DANIEL CRESPO                            CD  SEP159810HERRERA     LOS POZOS         LOS POZOS (CABEC.)AUG01162017010801010000010000020000010827992-210915/09/199801/09/201600000433 
PEREZ LEYTON   SONIBEL M.   080000905002305272013FIPT JEPTHA B DUNCAN                               KI  DEC239510PANAMA      PANAMA            SAN FELIPE        AUG0116201711061007000007000003      01  000-000023/12/199501/12/201600000437 
CHUNG          ALAN         080000913000468092015MCENTRO EDUCATIVO MONSENOR FRANCISCO BECKMAN       RT  NOV269610PANAMA      PANAMA            SAN FELIPE        AUG01162017011202010000010000080000011812268-200626/11/199601/11/201600000416 
FRIAS P.       ZULEYKA M.   070000711001075092015FCOL MANUEL MARIA TEJADA ROCA                      CS  JAN039810LOS SANTOS  LAS TABLAS        LAS TABLAS (CABECEAUG0116201707090102000002                000-000003/01/199801/01/201600000452 
SENCION ABREGO JUAN FRANCISC070000710001109232014FINST DE ARTES MECANICAS                           GR  APR169610PANAMA      SAN MIGUELITO     RUFINA ALFARO     AUG01162017013201040000040000010000011001000-000016/04/199601/04/201600000334 
RODRIGUEZ G.   DIGNA M.     080000943002290022016FINST EPISCOPAL SAN JOSE (CHORRERA)                GY  MAY099920PANAMA      CAPIRA            CAPIRA (CABEC.)   AUG01162017010801010000010000010000032704000-000009/05/199901/05/201600000451 
VERGARA        VIRGINIE     080000936000216142016FCOL ELENA CHAVEZ DE PINATE                        BN  JUL019810PANAMA      PANAMA            SAN FELIPE        AUG01162017011202010000010000010000011212296-129601/07/199801/07/201600000385 
RIVAS          CAROLINA E   080000932002483022016FCOL MANUEL MARIA TEJADA ROCA                      CS  JUN059710LOS SANTOS  PEDASI            MARIABE           AUG01162017030802030000030000060000010127995-260105/06/199701/06/201600000424 
BATISTA        GABRIELA     040000793001691092016FCENTRO EDUCATIVO MONSENOR FRANCISCO BECKMAN       RT  APR019810PANAMA      PANAMA            SAN FELIPE        AUG0116201701100301000001                399-526201/04/199801/04/201600000447 
LINARES        MAGDA        080000936000745022015FCENTRO EDUCATIVO STELLA SIERRA                    PP  DEC289710PANAMA      ARRAIJAN          ARRAIJAN (CABECERAAUG01162017010401030000030000070000010401000-000028/12/199701/12/201600000368 
MORALES C.     ANA G.       080000943002189022016FINST BILINGUE VISTA ALEGRE                        FU  FEB219820PANAMA      ARRAIJAN          VISTA ALEGRE      AUG0116201701090104000004000003      32  251-353021/02/199801/02/201600000420 
MADRID         STEPHANE     050000714002041022015FINST RUBIANO                                      IN  FEB019810PANAMA      SAN MIGUELITO     BELISARIO FRIAS   AUG0116201701060601000001000001      27  234-292501/02/199801/02/201600000444 
GUERRA         CLAUDIA      00PP00398029261042016FCOL INTERNACIONAL OXFORD                          BX  JUL249820PANAMA      PANAMA            SAN FELIPE        AUG01162017011804010000010000040000060303396-151824/07/199801/07/201600000450 
AGUILAR J.     SARAI C.     080000939000347022016FCOL BILINGUE LA ACADEMIA                          RA  NOV229820PANAMA      PANAMA            EL CHORRILLO      AUG01162017013201040000040000060000010332295-874522/11/199801/11/201600000371 
GARCIA M.      YANELIS Y.   070000711001919022016FCOL FRANCISCO I CASTILLERO                        QA  AUG259810LOS SANTOS  GUARARE           EL ESPINAL        AUG01162017070901020000020000060000100613994-581325/08/199801/08/201600000458 
CABALLERO      STEPHANIE    010000730001084022010FPARROQUIAL SAN JOSE                               LW  FEB179320BOCAS DEL TOCHANGUINOLA       CHANGUINOLA (CABECAUG0116201708170102000002                000-000017/02/199301/02/201600000475 
ALONZO M.      YINETH M.    080000925001662022015FCOL JOSE DOLORES MOSCOTE                          CF  DEC079710PANAMA      PANAMA            SAN FELIPE        AUG0116201701170102000002000001      10  292-771207/12/199701/12/201600000438 
RODRIGUEZ P.   YEIKA MASSIEL080000935000743262016FIPT JEPTHA B DUNCAN                               KI  JUL189810PANAMA      PANAMA            EL CHORRILLO      AUG0116201711100301000001000012      11  000-000018/07/199801/07/201600000468 
HENRY M.       FELICIO M.   100000710001272092012MCENTRO DE EDUCACION LABORAL ARRAIJAN              TN  JUL098910PANAMA      ARRAIJAN          ARRAIJAN (CABECERAAUG0116201701130111000011                000-000009/07/198901/07/201600000449 
FIGUEROA A.    LUIS A.      070000710000256092014MIPT DE TONOSI                                     KD  SEP209510LOS SANTOS  TONOSI            EL CACAO          AUG0116201707240202000002000012      11  000-000020/09/199501/09/201600000472 
PARRILLA       MANUEL       080000937002048022016MCOL CRISTOBAL ADAN DE URRIOLA                     BJ  JUN069810PANAMA      ARRAIJAN          BURUNGA           AUG01162017011401010000010000010000010404000-000006/06/199801/06/201600000380 
DE FRIAS M.    DAYVELIS V.  070000711001873022016FINST CORONEL SEG DE VILLARREAL                    GN  JUL249810LOS SANTOS  LOS SANTOS        LA ESPIGADILLA    AUG0116201707090102000002000003      10  000-000024/07/199801/07/201600000478 
PIMENTEL G     NAZARETH E   060000721002402022016FINST DE ARTES MECANICAS                           GR  OCT269810HERRERA     SANTA MARIA       SANTA MARIA (CABECAUG01162017031701020000020000030000010827000-000026/10/199801/10/201600000402 
GOMEZ          ENRIQUE JOEL 080000944000339092016MCENTRO EDUCATIVO MONSENOR FRANCISCO BECKMAN       RT  MAR199910PANAMA      PANAMA            SAN FELIPE        AUG0116201701100301000001000003      11  000-000019/03/199901/03/201600000435 
JAEN           MARIA        080000818000867022006FKID S SCHOOL                                      MT  SEP128820PANAMA      PANAMA            SAN FRANCISCO     AUG01162017011204010000010000060000010306215-216012/09/198801/09/201600000460 
ALVARADO       ABIGAIL      080000953000667092016FINST SUP DE FORM TURISTICA                        NF  JAN149120PANAMA      SAN MIGUELITO     OMAR TORRIJOS     AUG0116201701060507000007                000-000014/01/199101/01/201600000454 
CEDEÑO        IVETH        080000934000286022016FCENTRO EDUCATIVO STELLA SIERRA                    PP  JUN269810PANAMA      ARRAIJAN          BURUNGA           AUG01162017011401010000010000020000161704000-000026/06/199801/06/201600000356 
ORTEGA P.      ANA K.       070000711001962022016FCOL MANUEL MARIA TEJADA ROCA                      CS  SEP159810LOS SANTOS  GUARARE           GUARARE (CABECERA)AUG01162017010801010000010000010000031404994-568915/09/199801/09/201600000419 
GONZALEZ       MARIBI       040000840001442022016FCOL SEC DE SAN FELIX                              XB  DEC239810CHIRIQUI    REMEDIOS          CERRO IGLESIAS    AUG01162017010801010000010000020000011714000-000023/12/199801/12/201600000411 
FERNANDEZ H    ANGELY L     020000742002468022016FCOL RODOLFO CHIARI                                DL  JAN079910COCLE       AGUADULCE         BARRIOS UNIDOS    AUG01162017030301020000020000010000010627997-658907/01/199901/01/201600000417 
CEDEÑO M.     FRANCISCO O. 060000721002068022016MSECUNDARIA DE MONAGRILLO (SEGUNDO  FAMILIAR CANO) ME  AUG049810HERRERA     CHITRE            MONAGRILLO        AUG01162017010801010000010000010000020817996-427404/08/199801/08/201600000463 
RIVERA T.      ALEXANDER A. 080000940001907042016MACAD BILINGUE NUEVA ESPERANZA                     AA  FEB099910PANAMA      PANAMA            SAN FELIPE        AUG01162017010801010000010000010000020817239-832609/02/199901/02/201600000429 
GONZALEZ A.    KELY         070000711001574142016FCOL MANUEL MARIA TEJADA ROCA                      CS  MAY129810LOS SANTOS  LAS TABLAS        LAS TABLAS (CABECEAUG01162017070901020000020000010000010605000-000012/05/199801/05/201600000486 
CAYASSO HERRERAZURISADAI N. 030000742001907022016FCOL EBEN EZER                                     RD  DEC119820COLON       COLON             CATIVA            AUG01162017010801010000010000030000040409221-774311/12/199801/12/201600000415 
SAMANIEGO G.   SARLY S.     060000722000470022016FSECUNDARIA DE MONAGRILLO (SEGUNDO  FAMILIAR CANO) ME  JAN239910HERRERA     CHITRE            LLANO BONITO      AUG01162017010801010000010000010000020817996-427423/01/199901/01/201600000466 
VERGARA S      WANDA S      080000866002032022010FCENTRO EDUCATIVO STELLA SIERRA                    PP  JAN039310PANAMA      ARRAIJAN          ARRAIJAN (CABECERAAUG01162017010901020000020000040000060209256-579803/01/199301/01/201600000247 
RAMOS L.       KELLEEN Y.   070000713002253142016FCOL MANUEL MARIA TEJADA ROCA                      CS  APR059810LOS SANTOS  LAS TABLAS        LAS TABLAS (CABECEAUG01162017070901020000020000030000051024000-000005/04/199801/04/201600000490 
RODRIGUEZ      LARITZA Y.   090000754002150042016FACAD BILINGUE NUEVA ESPERANZA                     AA  MAR279910PANAMA      PANAMA            SAN FELIPE        AUG0116201701170102000002                234-047127/03/199901/03/201600000414 
UBARTE V.      TELVIA A.    020000739000899142015FCOL ANGEL MARIA HERRERA                           AY  APR269710COCLE       PENONOME          PENONOME (CABEC.) AUG0116201706060601000001000012      11  000-000026/04/199701/04/201600000485 
QUINTERO F.    MILAGROS E.  070000711001887142016FCOL MANUEL MARIA TEJADA ROCA                      CS  SEP029810LOS SANTOS  POCRI             PARITILLA         AUG0116201707090102000002000005      24  000-000002/09/199801/09/201600000496 
SERRACIN P.    RACHEL A.    040000799000368022016FCOL FELIX OLIVARES CONTRERAS                      BQ  AUG229810CHIRIQUI    BOQUETE           ALTO BOQUETE      AUG01162017010801010000010000010000021417720-317322/08/199801/08/201600000495 
PIÑANGO       PATRICIA RAQU080000944001970122016FINST AMERICA                                      FO  MAR279910PANAMA      SAN MIGUELITO     OMAR TORRIJOS     AUG01162017010501010000010000010000011201231-233127/03/199901/03/201600000448 
MENJIVAR       ROBERTO      00EC00021013071122009MCOLEGIO EXTRANJERO                                0000OCT289130PANAMA      PANAMA            SAN FELIPE        AUG01162017010602010000010000010000020606268-561628/10/199101/10/201600000421 
PINZON R.      JANIEL E.    060000722000724022016MCOL PARROQUIAL SAN JUDAS TADEO                    DF  MAR139920PANAMA      SAN MIGUELITO     JOSE D. ESPINAR   AUG01162017010801010000010000010000011424277-369713/03/199901/03/201600000498 
GUTIERREZ      LOREINYS     080000935001558022016FESC SEC EL BUEN PASTOR                            EZ  SEP159820PANAMA      PANAMA            SAN FELIPE        AUG01162017011208010000010000010000011427399-758715/09/199801/09/201600000481 
VARGAS GARCIA  ASHLY NOEMI  080000948001124222016FIPT JEPTHA B DUNCAN                               KI  APR049910PANAMA      PANAMA            SAN FELIPE        AUG01162017013201020000020000060000020303000-000004/04/199901/04/201600000393 
VARGAS B.      EVA MARIA    080000939002454022016FCOL ELENA CHAVEZ DE PINATE                        BN  DEC109810PANAMA      PANAMA            SAN FELIPE        AUG0116201701170102000002                399-394610/12/199801/12/201600000432 
MENDIETA P.    YAHAIRA S.   080000942000417022016FESC SEC PEDRO PABLO SANCHEZ                       FD  JAN149910PANAMA      LA CHORRERA       GUADALUPE         AUG01162017010803010000010000030000010807244-137814/01/199901/01/201600000459 
PINEDA C       SHERYL K.    080000942001483022016FCENTRO EDUCATIVO GUILLERMO ENDARA GALIMANI        ACD MAR209910PANAMA      ARRAIJAN          VISTA ALEGRE      AUG01162017010901040000040000020000050909255-144820/03/199901/03/201600000479 
BATCHELOR      JAMIR        030000743000649022016MCOL ABEL BRAVO                                    AV  APR159910COLON       COLON             CATIVA            AUG01162017010405010000010000010000030404000-000015/04/199901/04/201600000254 
GARCIA C.      NATHALY M.   080000941001683022016FCOL VENANCIO FENOSA PASCUAL                       EM  FEB149910PANAMA      CHEPO             CHEPO (CABEC.)    AUG01162017010901020000020000030000010812296-768114/02/199901/02/201600000412 
RIVERA         ADRIANA A.   080000936000614142016FCOL AGUSTINIANO                                   AW  OCT069820HERRERA     CHITRE            CHITRE (CABECERA) AUG01162017010501010000010000010000010627923-179706/10/199801/10/201600000443 
JORDAN IGLESIASLORENA DANEY 080000931000082092015FCENTRO EDUCATIVO MONSENOR FRANCISCO BECKMAN       RT  JUL099710PANAMA      SAN MIGUELITO     AMELIA D. DE ICAZAAUG0116201711110218000018000006      03  237-284709/07/199701/07/201600000462 
VEGA V.        ANTHONY R.   030000742001366022016MCOL JOSE DANIEL CRESPO                            CD  DEC169810HERRERA     CHITRE            LLANO BONITO      AUG01162017010801010000010000010000010708970-036216/12/199801/12/201600000482 
BONILLA R.     JUAN         010000207000784022016MSECUNDARIA DE ALANJE                              LX  NOV069710CHIRIQUI    ALANJE            ALANJE (CABECERA) AUG01162017011701020000020000030000160404000-000006/11/199701/11/201600000403 
NG CURABO      MICHELLE M.  080000947000518042016FESC PANAMA                                        EW  AUG269920PANAMA      SAN MIGUELITO     OMAR TORRIJOS     AUG01162017010801010000010000040000010927399-186926/08/199901/08/201600000506 
CASTRO T.      JOHN X.      060000721001940022016MCOL JOSE DANIEL CRESPO                            CD  JUL109810HERRERA     CHITRE            CHITRE (CABECERA) AUG01162017010801010000010000040000020917996-884410/07/199801/07/201600000488 
