               RICARDO      040000780002332022013MSECUNDARIA DE RENACIMIENTO                        MH  OCT159510CHIRIQUI    DOLEGA            LOS ALGARROBOS    JUL2616201712010403000003                999-999915/10/199526/10/201600000002 
ESCUDERO       JOHNNY       040000747000308022006MSECUNDARIA DE PTO ARMUELLES                       MG  JUL238810CHIRIQUI    BARU              RODOLFO AGUILAR   JUL2616201712010403000003                999-999923/07/198826/07/201600000007 
GONZALEZ       MODESTO      090000743000854022012MIPT AGROFORESTAL ALTO DE PIEDRA                   RQ  JUN159410VERAGUAS    SANTA FE          RIO LUIS          JUL2616201712010403000003                999-999915/06/199426/06/201600000003 
BENITES        ALEXIS       020000732000810272015MINST DE ENSENANZA SUPERIOR (CHORRERA)             OC  OCT069320COCLE       PENONOME          RIO INDIO         JUL2616201712010403000003                999-999906/10/199326/10/201600000005 
CARPINTERO     ALEXI        040000783002033282015MSITIO PRADO                                       WR  SEP299510BOCAS DEL TOCHIRIQUI GRANDE   MUNUNI            JUL2616201712010403000003                999-999929/09/199526/09/201600000001 
GUERRA         RODOLFO      010000727000887022011MCOL NIEVECITA DE LAS TABLAS (BOCAS DEL TORO)      SJ  MAY229210BOCAS DEL TOCHANGUINOLA       LAS TABLAS        JUL2616201712010403000003                999-999922/05/199226/05/201600000006 
GONZALEZ       ELVIS        080000908002018212014MIPT DE LA PALMAS                                  JZ  JUN229610PANAMA      PANAMA            SAN FELIPE        JUL2616201712010403000003                999-999922/06/199626/06/201600000004 
CRUZ           JOSE         020000741001085312016MIPT NOCTURNO DE PANAMA                            KO  FEB149810COCLE       PENONOME          PENONOME (CABEC.) JUL2616201712010403000003                997-936714/02/199826/02/201600000009 
DEL CID        LUIS         040000797002059092014MCOL OFICIAL NOCT DE DAVID                         PT  JAN169710CHIRIQUI    ALANJE            NUEVO MEXICO      JUL2616201712010403000003                999-999916/01/199726/01/201600000008 
ESPINOSA       TOMAS        040000766001953092015MESC SECUNDARIA NOCTURNA DE DOLEGA                 VM  MAR279010CHIRIQUI    DOLEGA            LOS ANASTACIOS    JUL2616201712010403000003                999-999927/03/199026/03/201600000012 
CHAVEZ         JOSE         040000798000213092015MSECUNDARIA DE PTO ARMUELLES                       MG  JUN149710CHIRIQUI    BARU              BACO              JUL2616201712010403000003                999-999914/06/199726/06/201600000010 
CASAMA         BERNARDO     110000700000549092014MNOCTURNA DE YAVIZA                                QT  MAR239510DARIEN      CEMACO            MANUEL ORTEGA     JUL2616201712010604000004                999-999923/03/199526/03/201600000011 
GONZALEZ       JEAN         080000898001430022013MINST DE MARINA MERCANTE OCUP DE PANAMA            GW  OCT199520PANAMA      ARRAIJAN          BURUNGA           JUL2616201712010403000003                999-999919/10/199526/10/201600000018 
CASTRELLON     HORACIO      040000796002254012012MIPT ABEL TAPIERO MIRANDA                          PO  MAR029210CHIRIQUI    BARU              HORCONCITOS (CABECJUL2616201712010403000003                999-999902/03/199226/03/201600000013 
COLINDRES      OSNAR        040000773002095192013MIPT DE DAVID                                      JW  OCT179410CHIRIQUI    BUGABA            ASERRIO DE GARICHEJUL2616201712010403000003                999-999917/10/199426/10/201600000014 
CAMARENA       JAVIER       080000813000647022005MINST RUFO A GARAY                                 IO  NOV268710PANAMA      LA CHORRERA       BARRIO BALBOA     JUL2616201712010403000003                999-999926/11/198726/11/201600000024 
HUERTAS        JOSHUA       040000774001456142014MCOL DANIEL OCTAVIO CRESPO                         BK  NOV039410CHIRIQUI    BARU              PROGRESO          JUL2616201712010403000003      000006  01727-675803/11/199426/11/201600000015 
JIMENEZ        ANEL         040000753002257092008MSECUNDARIA DE ASERRIO                             LZ  JUL099010CHIRIQUI    BUGABA            GOMEZ             JUL2616201712010403000003                999-999909/07/199026/07/201600000025 
BARRIA         RUBEN        090000747000523232013MIPT DE VERAGUAS                                   KE  FEB279610VERAGUAS    SANTIAGO          SANTIAGO (CABEC.) JUL2616201712010403000003                999-406327/02/199626/02/201600000023 
